:100000000C94A8040C94C5040C94C5040C94C50469
:100010000C94C5040C94C5040C94C5040C94C5043C
:100020000C94C5040C94C5040C9422300C94F53047
:100030000C9430260C94C5040C94C5040C94C5048F
:100040000C94C5040C94C5040C94C5040C94C5040C
:100050000C94C5040C9496260C94C5040C94C50409
:100060000C94C5040C94C5040C94C5040C94C504EC
:100070000C94C5040C94C5040C94C5040C94C504DC
:100080000C94C5040C94C5040C94C5040C94C504CC
:100090000C94C5040C94C5040C94C5040C94C504BC
:1000A0000C94C5040C94C5040C94C5040763423633
:1000B000B79BD8A71A39685618AEBAAB558C1D3CF9
:1000C000B7CC5763BD6DEDFD753EF6177231BF00BD
:1000D0000000803F05A84CCDB2D44EB93836A902F5
:1000E0000C50B9918688083CA6AAAA2ABE00000036
:1000F000803F6572676F646F785F657A2F64616DAA
:100100006972204020302E362E35382D31332D6740
:100110003263613830312D646972747900657267B9
:100120006F646F785F657A2F64616D69722040201B
:10013000302E362E35382D31332D6732636138300D
:10014000312D6469727479000000F0A100572B0012
:100150003941E100E00000001E00140004001D64AD
:10016000E2004C001F001A0016001B68E3002A453D
:100170002000080007000600AA002C6821001500D6
:1001800009001900A9002D00220017000A0005002F
:1001900000002C002900055800000B00000004534B
:1001A00023002E00000001530000AC0024001C00BE
:1001B0000B0011000000AB00250018000D0010001E
:1001C000E700035326000C000E00360050002C42BE
:1001D000270012000F003700510031412D0013009D
:1001E000330038005200AE002A0034002843E500F6
:1001F0004F00000029000000000000620000000025
:100200003A001E02200222020000C45C3B001F02D2
:1002100021022302A800C75C3C002F0226022F0007
:10022000AA00C85C3D00300227023000A900C35C70
:100230003E003102350035020000C15C3F00000085
:10024000000000000000C25C400000000000000050
:100250000000C05C41005200510024020000D35C49
:100260004200240021001E006200CB5C43002500F8
:1002700022001F006200C55C44002600230020000D
:100280006300000045005500560054002E00C65C77
:100290002A004C005800576258000000010001007D
:1002A0000100010001000000010001000100010047
:1002B0000100010001000100010001000100010036
:1002C0000100010001000100010001000100010026
:1002D0000100010001000100010001000100010016
:1002E0000000010001000100000001000000010009
:1002F000000000000000FB000000AC0000004A000D
:100300000000FA000000AB0046004D005000F9006C
:10031000AA00AD00470052005100FC00A9000000F7
:1003200048004B004F000000AE0000002A004E00C5
:1003300000000000AC00AE004C00A900AA00AE62B4
:10034000AB000000010001000100010001000000FD
:100350000100010001000100010001000100010095
:100360000100010001000100010001000100010085
:100370000100010001000100010001000100010075
:10038000175C185C195C0100000001001B5C1C5C20
:100390000000010000000100010001000000010058
:1003A00000000100010001000100FF000000010049
:1003B000010001000100FB00FD000100AC00010094
:1003C000F200FA00AA00F400AE00F000F100F9001B
:1003D000A900F600AB000100F300FC000100F500ED
:1003E0000100010001000100010000000000000008
:1003F000DD5CE100010000000100010001000100DE
:1004000001000100010001000100010001000100E4
:1004100001000100010001000100010001000100D4
:1004200001000100010001000100010001000100C4
:1004300000000100005C010000000100000001005C
:1004400001000100000001000000010001000100A6
:100450000100010000000100010001000100010095
:100460000100010001000100010001000100010084
:100470000100010001000100010001000100010074
:100480000100010001000100010001000100010064
:1004900001000000000000000000E1000100000079
:1004A00000004A000000E3000100010000004D00D0
:1004B0005000FB0001000100000052005100F90053
:1004C0000100010000004B004F00FA000100010094
:1004D00000004E000000FC000000010000000100D0
:1004E00000002800000001000100010000000100E0
:1004F00000000100010001000100FF0000000100F8
:10050000010001000100FB00FD000100AC00010042
:10051000F200FA00AA00F400AE00F000F100F900C9
:10052000A900F600AB000100F300FC000100F5009B
:1005300001000100010001000100000000000000B6
:10054000000000002A2B280000000000000000002E
:100550000000000000000029000000002C1E3420D4
:10056000212224342627252E362D3738271E1F20FA
:100570002122232425263333362E37381F0405063F
:100580000708090A0B0C0D0E0F1011121314151683
:100590001718191A1B1C1D2F3130232D3504050681
:1005A0000708090A0B0C0D0E0F1011121314151663
:1005B0001718191A1B1C1D2F3130354C0000000074
:1005C000000000000000000000000000000000002B
:1005D0000000000000000000000000000001010118
:1005E0000101010001010101000000000000000004
:1005F00000000000000001000100010101010101F3
:1006000001010101010101010101010101010101DA
:1006100001010101010101000000010100000000D1
:1006200000000000000000000000000000000000CA
:100630000000000000000001010101000004680149
:10064000F000B40078005A007F3F1F643214643217
:1006500014783C1E1E140A05000000000001010170
:10066000010101010101020202020202020202036F
:10067000030303030303030404040404040505053E
:1006800005050606060606070707070808080809FD
:1006900009090A0A0A0A0B0B0B0C0C0C0D0D0D0EA6
:1006A0000E0F0F0F10101111111212131314141535
:1006B0001516161717181819191A1A1B1C1C1D1DA8
:1006C0001E1F1F20202122222324252526272728FC
:1006D000292A2B2B2C2D2E2F2F3031323334353627
:1006E000363738393A3B3C3D3E3F40414243444631
:1006F0004748494A4B4C4D4F505152535556575805
:100700005A5B5C5E5F606263646667696A6C6D6EAB
:10071000707173747678797B7C7E8081838486881F
:100720008A8B8D8F91929496989A9B9D9FA1A3A559
:10073000A7A9ABADAFB1B3B5B7B9BBBDBFC1C4C657
:10074000C8CACCCFD1D3D6D8DADCDFE1E4E6E8EB17
:10075000EDF0F2F5F7FAFCFF040330000000160399
:100760004500720067006F0044006F0078002000B1
:1007700045005A00000016034500720067006F0034
:1007800044006F007800200045005A000000040378
:10079000090409028D00050100A0FA090400000106
:1007A0000301010009211101000122400007058118
:1007B0000308000A090401000103010200092111D4
:1007C000010001224D000705820308000A09040206
:1007D0000001030000000921110100012236000779
:1007E00005830308000A090403000203000000094E
:1007F00021110100012222000705840320000107C6
:10080000050403200001090404000103000000099D
:100810002111010001223900070585032000011282
:1008200001100100000008EDFE07130100010203A2
:100830000105010906A101050719E029E7150025B1
:1008400001950875018102050819012905950575AD
:100850000191029501750391010507190029F7150A
:1008600000250195F875018102C00631FF0974A1C8
:10087000010975150026FF0095207508810209768B
:10088000150026FF00952075089102C0050109801A
:10089000A10185021601002603001A81002A8300A7
:1008A000751095018100C0050C0901A10185031691
:1008B0000100269C021A01002A9C027510950181F4
:1008C00000C005010902A1010901A10005091901E2
:1008D000290515002501950575018102950175030E
:1008E00081010501093009311581257F95027508BF
:1008F000810609381581257F950175088106050C4B
:100900000A38021581257F950175088106C0C0054A
:10091000010906A101050719E029E7150025019540
:1009200008750181029501750881010508190129E1
:10093000059505750191029501750391010507194A
:100940000029FF150026FF00950675088100C000EC
:1009500011241FBECFEFDAE0DEBFCDBF12E0A0E072
:10096000B1E0E2E3F3E702C005900D92A030B107D9
:10097000D9F723E0A0E0B2E001C01D92AB3EB20780
:10098000E1F70E944B2D0C9440390C94000010921A
:10099000B9008AE08093B800089594EA9093BC006F
:1009A0009091BC0097FFFCCF9091B900987F983050
:1009B00011F0903199F48093BB0084E88093BC00DF
:1009C0008091BC0087FFFCCF9091B900987F98314F
:1009D00019F081E0903409F480E0089581E00895F1
:1009E00084E98093BC008091BC0084FDFCCF089515
:1009F0008093BB0084E88093BC008091BC0087FF9B
:100A0000FCCF9091B900987F81E0983209F480E0A2
:100A1000089584E88093BC008091BC0087FFFCCFE0
:100A20008091BB00089580B38C7080BB81B3836FCD
:100A300081BB089584B1807F84B985B1807F85B9F9
:100A40008AB1837F8AB98BB1837F8BB93E984698F0
:100A50000895CF93C82F873000F580910001811150
:100A600025C080E40E94CD0480930001811112C052
:100A700082E10E94F8048093000181110BC081E0A3
:100A800090E001C0880FCA95EAF780950E94F804AB
:100A900080930001CF910C94F0048A30B9F040F4B7
:100AA000883071F0893079F0209A2898CF91089594
:100AB0008C3091F070F08D30B9F73E9A4698F6CFB1
:100AC000219A2998F3CF229A2A98F0CF239A2B982B
:100AD000EDCF529A5B98EACF539AFCCFCF938730F1
:100AE00010F5C0910001C11127C080E40E94CD041F
:100AF00080930001811112C083E10E94F804809369
:100B0000000181110BC081E40E94CD04809300019B
:100B1000811104C00E940905C82FC0950E94F004ED
:100B20008C2FCF9108958FB1CFB1C695C695CC7358
:100B30008370C82BC095F4CFC0E0F2CF0C94970718
:100B40000E94EE06809300010E941A050E94130580
:100B5000E7E5F2E083E092E01192DC0126E01D92ED
:100B60002150E9F7069622E0E536F207A9F70C9442
:100B7000BC0B0E94EE06809300010E941A050E94A1
:100B80001305E7E5F2E0119282E0E536F807D9F7C0
:100B9000089596E0899FF0011124ED5FFD4F30E04C
:100BA00020E080E041E050E09191992351F0DF0195
:100BB000119791509C932F5F3F4F26303105A1F73D
:100BC0000895BA01022E01C0660F0A94EAF7862B37
:100BD000F2CF96E0699FB001112430E020E090E070
:100BE00045E0FC01022E02C0F595E7950A94E2F774
:100BF000E0FF06C0F901E60FF71FED5FFD4F4083F0
:100C00002F5F3F4F2630310561F70895EF92FF9235
:100C10000F931F93CF93DF9380910001882379F086
:100C2000809102028F5F80930202811108C00E94AE
:100C3000EE0680930001811102C00E94980607E52C
:100C400012E0C0E08C2F0E94290587E0F82EFC0EF0
:100C50008F2D0E9429058C2F0E94C905E82E8C2F0C
:100C60000E946E05F80191918F01DE2DD095D92358
:100C70008E21D82B6C2F892F8D270E94E905F80132
:100C80003197D0838F2D0E94C905E82E8F2D0E94A9
:100C90006E05F8019681DE2DD095D9238E21D82BB3
:100CA0006F2D892F8D270E94E905F801D6830E94B8
:100CB0001A05CF5FC73031F60E94BE0B81E0DF918D
:100CC000CF911F910F91FF90EF900895E82FF0E0E2
:100CD000E95AFD4F808108950895259A2D9A089527
:100CE000269A2E9A0895279A2F9A089556985E98D4
:100CF000089525982D98089526982E980895279858
:100D00002F9808950E9476060E9479060E947C061C
:100D10000C947F0690E090938900809388009093D4
:100D20008B0080938A0090938D0080938C000895AF
:100D30000E9482068FEF0E948A060E946D062FEFA6
:100D400080E792E0215080409040E1F700C0000031
:100D50000E9470062FEF80E792E021508040904083
:100D6000E1F700C000000E9473062FEF80E792E0D9
:100D7000215080409040E1F700C000000E947906B9
:100D80002FEF80E792E0215080409040E1F700C0D3
:100D900000000E947C062FEF80E792E02150804007
:100DA0009040E1F700C000000E947F060C9482068C
:100DB00089EA8093800089E08093810024982C98B0
:100DC0003F988AB18F7C8AB96E98479A8BB18063BD
:100DD0008BB9769A0E9498060C944A0780E2809319
:100DE00000018091650281110EC00E94C70481E05C
:100DF000809365022FEF83ED90E321508040904077
:100E0000E1F700C0000080E40E94CD04809300015F
:100E100081112EC00E94F80480930001811128C026
:100E20000E94F80480930001811122C08FE30E9488
:100E3000F8048093000181111BC00E94F00480E43B
:100E40000E94CD0480930001811112C08CE00E94A9
:100E5000F8048093000181110BC00E94F804809374
:100E60000001811105C08FE30E94F8048093000106
:100E70000E94F004809100010895611108C0FC01F6
:100E80008281882321F08DE191E00E94B90B90E0EE
:100E900080E008950E94B7120E9476060E947906AB
:100EA0000E947C060E947F060E94AE1248E168E123
:100EB00088E10C948910CF93C82F80FF0BC00E944B
:100EC0006D06C1FF0AC00E947006C2FF09C0CF9123
:100ED0000C9473060E947906F4CF0E947C06F5CF2D
:100EE000CF910C947F06FB018D3D2CE5920771F0AC
:100EF0008E3D2CE5920791F08C3D9C45B1F48281AA
:100F00008823A1F00E94272580E00895828188230C
:100F100069F082EF90E00E94B90BF6CF82818823BE
:100F200029F081E00E945B12EFCF81E008950895DF
:100F3000CF92DF92EF92FF926B017C010E94DA2444
:100F4000883058F4E82FF0E0EE5BF64C0C941C3639
:100F500048E168E188E10E948910C701B601FF906D
:100F6000EF90DF90CF90089540E060E08FEFF3CFF7
:100F700040E06FEF02C04FEF60E080E0ECCF40E078
:100F80006FEFF4CF4FEFF1CF4FEFF3CF4FEFF8CF3D
:100F90000F931F93CF93DF938C01EB019A958115EB
:100FA0009F4138F510FF03C080EEFB01099511FF4A
:100FB00003C081EEFE01099512FF03C082EEFE011F
:100FC000099513FF03C083EEFE0109950115104139
:100FD00080F084EEFE01099585EEFE01099586EE0E
:100FE000FE01099587EEFE01DF91CF911F910F91D0
:100FF0000994DF91CF911F910F910895877091E02F
:1010000001C0990F8A95EAF7892F0E94AC240C94AD
:1010100063240C94FE07877091E001C0990F8A95B4
:10102000EAF7892F0E94B2240C9463240C940B08D5
:10103000CF93DF93EC01805E9109089720F06EEF6B
:1010400077E0209711F469E078E0CE010E94C807AC
:101050008C2FDF91CF910C94421ACF93DF93EC0148
:101060000E941D1BCE01805E9109089720F06BE065
:1010700078E0209711F466E178E0CE01DF91CF911E
:101080000C94C80781E008950C9473070E94661EB3
:101090002FEF84E39CE0215080409040E1F700C0B6
:1010A00000000C94BA26FF920F931F93CF93DF9307
:1010B0008C01FC01C081D1818091C002811168C086
:1010C0008281882309F45FC0CE010E94AF23F82EED
:1010D000682FCE010E945823BE018F2D0E94D50B90
:1010E000EC01B8010E94D416B801CE010E94440858
:1010F000882309F415C1B801CE010E94181788236E
:1011000009F40EC1B801CE010E943E0E882309F4F5
:1011100007C1B801CE010E948D0E882309F400C1D9
:10112000B801CE010E944A18882309F4F9C0C93CCD
:10113000FCE5DF0709F42DC108F061C0C13C9CE566
:10114000D90709F4FEC0C8F5C531FCE5DF0728F56D
:10115000C2308CE5D80708F09BC1C1159CE5D907C2
:1011600009F4D9C0C130DC4509F4E1C081E08093C5
:101170006B0280936C02C801DF91CF911F910F9198
:10118000FF900C944208CE010E948623F82EA4CF33
:10119000CE010E94AF23BE01A1CFC531FCE5DF0720
:1011A00009F436C2C03CDC4509F7F8018281882386
:1011B00009F4B6C00E94CF12B3C0F8018281C53CC9
:1011C000FCE5DF0709F4D6C068F4C33CECE5DE07B4
:1011D00009F4CBC008F4C0C0882309F4A1C00E9460
:1011E0008E119EC0C73C9CE5D90709F4CDC008F418
:1011F000C6C0882309F494C00E94F51191C0C13D76
:10120000FCE5DF0709F414C1F0F5F8018281CD3C5B
:10121000FCE5DF0709F4D1C0D8F4CB3CECE5DE07F0
:1012200009F4C4C008F4BCC0882309F479C00E9442
:101230003810623071058105910540F00E94381028
:10124000653071058105910508F48CC082E0B2C05B
:10125000CF3C9CE5D90709F4D7C008F4C1C0882366
:1012600009F45EC00E943810653171058105910551
:1012700040F00E943810673171058105910508F42E
:1012800071C085E197C0C53DFCE5DF0709F493C156
:10129000C0F4F8018281C33DFCE5DF0709F4E3C037
:1012A00008F4CDC0882309F465C110926B020E9436
:1012B0006026909368028093670282E00E946C1B14
:1012C0002FC0C93DECE5DE0709F4D2C0CA3DFCE5FC
:1012D000DF0709F4D6C0C63DDC4509F047CFF80169
:1012E000828181116CC180916C0281117BC18091DE
:1012F000690290916A020E946C268A3A910508F070
:1013000071C180E20E94731B88E20E94421A88E247
:101310000E941D1B05C0F801828181110E944608B0
:1013200080E0DF91CF911F910F91FF900895F80118
:1013300082818823A9F380915F03816080935F039A
:10134000EFCFF8018281882359F30E94962482729C
:1013500049F00E946812E4CF882311F30E9496247A
:101360008272B9F30E945E12DBCF8823C9F20E9419
:101370007611D6CF8823A1F20E94AD11D1CF882358
:1013800079F20E94C511CCCF882351F20E94DD1161
:10139000C7CFF8018281882319F20E944610C0CF7E
:1013A000882309F4BDCF0E945B10BACF882309F4CB
:1013B000B7CF81E00E945B12B3CF882309F4B0CF8E
:1013C0000E943810663071058105910538F00E9441
:1013D0003810683071058105910520F286E0EACF6A
:1013E000882309F49DCF0E9438106930710581056A
:1013F000910540F00E9438106E307105810591050D
:1014000008F4B0CF89E0D6CF882309F489CF0E94B1
:1014100038106F3071058105910540F00E94381039
:10142000643171058105910508F49CCF8FE0C2CF2E
:10143000F8018281882309F473CF88E1BBCF882328
:1014400009F46ECF0E94381069317105810591054C
:1014500040F00E943810623271058105910508F450
:1014600081CF89E1A7CF882309F45ACF83E2A2CFA5
:10147000F8018281882309F453CF80E00E94EC2D8B
:101480004FCFF8018281882309F44ACF82E0F6CF5A
:10149000F8018281882309F46ECE0E9448258111CB
:1014A00002C00E9427250E945B2590E09093DD03F7
:1014B0008093DC03FE01E350FC458091DC038160F6
:1014C000E231F10538F4E65BF64C0C941C36809161
:1014D000DC0382608093DC038091DC030E945F2543
:1014E0000E94661E1DCF8091DC038460F3CF809143
:1014F000DC038860EFCF8091DC038061EBCF8091CB
:10150000DC038062E7CF8091DC038064E3CF8091CD
:10151000DC038068DFCF8091DC038C60DBCF8091BF
:10152000DC038E7FD7CF8091DC038D7FD3CF80917A
:10153000DC038B7FCFCF8091DC03877FCBCF809183
:10154000DC038F7EC7CF8091DC038F7DC3CF80917A
:10155000DC038F7BBFCF8091DC038F77BBCF809183
:10156000DC03837FB7CF9091DC03892F97FB87F94A
:101570008058B0CF0E94962485FF09C081E08093F7
:101580006B0280936C0282E00E94731BC9CE809133
:101590006B028111F8CF80916702909168020E94DE
:1015A0006C268A3A910578F786E20E94421A86E212
:1015B0000E941D1BE8CFF8018281882351F0109210
:1015C0006C020E94602690936A028093690280E216
:1015D00075CE0E94962481FF07C081E080936B0244
:1015E00080936C0280E2D0CF80916C028111FACF9F
:1015F0008091690290916A020E946C268A3A910554
:1016000088F787E20E94421A87E20E941D1BEACFF8
:101610000E949624F8019281992381F08A7A91E0C0
:1016200009F490E090936602811106C089E20E945D
:101630001F240E94632474CE85E3F9CF8091660253
:10164000811104C089E20E942624F3CF85E3FBCFF9
:10165000CF9390E0FC01E45CFA4FC49184549A4F1C
:10166000FC018491882369F081EE0E94421A8C2F3C
:101670000E94421A8C2F0E941D1B81EECF910C9468
:101680001D1B8C2F0E94421A8C2FF8CFFF920F93B4
:101690001F93CF93DF93EC01F62E8881882331F1DD
:1016A0008E010F5F1F4F813041F4C9818C2F0E9442
:1016B000421A8C2F0E941D1B05C0823079F489814B
:1016C0000E94421AE80121968F2D815030F3EFE9F4
:1016D000FFE03197F1F700C00000F7CF833011F43D
:1016E0008981E8CF0E94280B8E01ECCFDF91CF914A
:1016F0001F910F91FF90089560E00C94460BFF92AC
:101700000F931F93CF93DF938C01F62EF8018491F2
:10171000882349F1E8012196813049F4FE011491B2
:10172000812F0E94421A812F0E941D1B06C0823009
:1017300089F4FE0184910E94421A8E010F5F1F4FAF
:101740008F2D815018F3EFE9FFE03197F1F700C0DA
:101750000000F7CF833019F4FE018491E5CF0E9499
:10176000280BE801EACFDF91CF911F910F91FF90F5
:10177000089560E00C947F0B0C94D8060E947217B9
:101780000C949E05282F2F7041F0822F90E02A3074
:1017900010F44D9608950697089587E290E0089515
:1017A0000C945B070C94D00B0895972F70E026E003
:1017B000929F600D711D1124FB0194E5899FE00D3E
:1017C000F11D1124EE0FFF1FE45BFE4F85919491F4
:1017D0000895FC01EE0FFF1FE85BFE4F8591949189
:1017E0000895CF93DF930E94D50B0E949F0DEC01CB
:1017F000811520E5920708F042C0811530E4930777
:1018000008F010C1883E910528F5803E910508F04A
:10181000A4C0883A910588F4853A910508F093C0F0
:101820008130910509F499C0009709F496C0049796
:1018300008F093C0D0E0C0E090C08D3B910508F463
:1018400090C0805C9109C03CD105A0F30E94E90BD7
:10185000EC0183C08115904250F4C11581E0D80796
:1018600008F07BC0C03FD10528F3D06576C0C11514
:1018700090E3D90708F0CCC0CE019F70E7CF811567
:1018800025E5920758F5811534E5930708F0F9C06E
:10189000811542E5940750F4C11581E5D80708F495
:1018A000C4C0DC2FCC27C16FD06A57C0982F969543
:1018B00096959E0123703327C115D34508F0D2C0F9
:1018C000C1E0D0E002C0CC0FDD1F2A95E2F720E294
:1018D000929FC0011124C82BD92BC2C0C1158AE523
:1018E000D807A0F4C11599E5D90708F0D5C0C115EE
:1018F00026E5D20708F4CAC0C11538E5D30708F4B5
:1019000099CFDC2FCC27C06FD06A27C0C1154BE51B
:10191000D40708F48FCFC1158CE5D80708F4C7C0E9
:10192000CE0190568115904208F084CF8D2F8F7193
:101930000E941A0E90E0982F882788279F719C019B
:101940002C2BE901A7C0853A910509F4B3C0863A6A
:10195000910509F0B2C0C2E8D0E4CE01DF91CF9189
:101960000895883A910509F4ABC0893A910509F4C4
:10197000AAC08A3A910509F4A9C08B3A910509F4E5
:10198000A8C08C3A910509F4A7C08B3B910509F4D6
:10199000A6C08C3B910509F4A5C08D3A910509F4C8
:1019A000A4C0803B910509F4A3C08E3A910509F4C7
:1019B000A2C08F3A910509F4A1C0813B910509F4B9
:1019C000A0C0823B910509F49FC0833B910509F4B7
:1019D0009EC0843B910509F49DC0853B910509F4A7
:1019E0009CC0863B910509F49BC0873B910509F497
:1019F0009AC0883B910509F499C0893B910509F487
:101A000098C08A3B910509F497C0C0E0D4E4A5CF03
:101A1000CE019927D3FF03C0EC01D86C9ECFEC0117
:101A2000D06C9BCFDF70D06A98CFCE01E4E0969562
:101A30008795EA95E1F783702C2F269526952370DC
:101A400040E2249F90011124382B8C2F8370C1E039
:101A5000D0E002C0CC0FDD1F8A95E2F7C22BD32B5A
:101A6000DC687BCFC1E0D0E002C0CC0FDD1F2A953F
:101A7000E2F730E2939FC0011124C82BD92BDA681A
:101A80006CCFD82FCC27C46FD06A67CFDC2FCC2780
:101A9000CC27DF71D06261CFCE0134E09695879577
:101AA0003A95E1F78F70CF70C06ED82FBCCFDD278D
:101AB000D06653CFC1E8D0E450CFC3E8D0E44DCFD7
:101AC000C2EED4E44ACFC9EED4E447CFCAEED4E4A0
:101AD00044CFC5EBD4E441CFC6EBD4E43ECFC3EB57
:101AE000D4E43BCFC4EBD4E438CFC7EBD4E435CF58
:101AF000CCECD4E432CFCDECD4E42FCFC3E8D5E4A2
:101B00002CCFCAE8D5E429CFC2E9D5E426CFC4E971
:101B1000D5E423CFC1E2D6E420CFC3E2D6E41DCF83
:101B2000C4E2D6E41ACFC5E2D6E417CFC6E2D6E4C3
:101B300014CFC7E2D6E411CFCAE2D6E40ECF823882
:101B4000910549F1B0F48133910509F462C048F47C
:101B50008932910509F456C08A32910509F460C0B2
:101B600008958533910509F446C08933910599F0AC
:101B70000895833E910531F138F4803E910591F04E
:101B8000823E9105B1F00895863E910521F1873E90
:101B9000910551F108952091DC032370D9F080EE76
:101BA00090E008952091DC0320FF14C089E390E0C9
:101BB00008952091DC0322FF0DC024FD09C083EEAF
:101BC00090E008952091DC0322FD31C024FF02C083
:101BD00090E080E008952091DC0323FFFBCF24FDFB
:101BE000F7CF87EE90E008952091DC0323FFEECF3E
:101BF00086EE90E008952091DC0325FFEBCF89E28B
:101C000090E008952091DC0325FFE4CF85E390E088
:101C100008952091DC0326FFDDCF8AE290E008954D
:101C20002091DC0326FFD6CF81E390E0089582EE79
:101C300090E008959091DC0392FF06C0282F287150
:101C4000283069F4877F846093FF06C0282F2871AD
:101C5000283161F4877E846194FD877E0895282F62
:101C60002471243089F78B7F8860EECF282F247170
:101C7000243191F78B7E8861EFCF08950F931F93E6
:101C8000CF938C01FB018281811106C0C1E08C2FB2
:101C9000CF911F910F910895C0917A02C11125C073
:101CA00006311C4599F70E943D0E81E080937A022F
:101CB0000E946026909379028093780210926D02C0
:101CC00010926F0210926E021092710210927002C6
:101CD00010927302109272021092750210927402A6
:101CE0001092770210927602D2CF80917802909172
:101CF00079020E946C268C32914040F680916D02F0
:101D0000E82FF0E0EE0FFF1FE259FD4F1183008333
:101D10008F5F80936D02C0E0BACFCF93DF93EC0169
:101D2000C13080E8D807C8F0FB0182818823A9F080
:101D300080917B02811109C08CE090E00E94C13843
:101D40000E94B10E81E080937B020E94B80ECE010A
:101D50009F770E94840F0E94350F81E0DF91CF9121
:101D6000089580937C02682F8CE090E00C94D53825
:101D7000E0911F01F091200180818093940381FF05
:101D800003C081EE0E941D1B8091940385FF03C058
:101D900085EE0E941D1B8091940380FF03C080EE9E
:101DA0000E941D1B8091940384FF03C084EE0E9457
:101DB0001D1B8091940382FF03C082EE0E941D1BB5
:101DC0008091940386FF03C086EE0E941D1B8091C4
:101DD000940383FF03C083EE0E941D1B8091940334
:101DE00087FF03C087EE0E941D1B80917C0282301A
:101DF00049F158F4882379F0813089F08FE39CE928
:101E00000197F1F700C000000895843019F1853082
:101E1000A9F786EE01C082EE0E94421AEFCF80EE53
:101E20000E94421A81EE0E94421A88E10E94421AE0
:101E300088E10E941D1B81EE0E941D1B80EE0E9406
:101E40001D1BDCCF82EE0E94421A87E50E94421AD7
:101E500087E5F5CF86EE0E94421A86EE0E941D1B92
:101E600088E10E94421A88E1EACF80917C028130A9
:101E700009F444C08823E1F18230D1F18530E1F1E9
:101E80008091940381FF03C081EE0E94421A8091E9
:101E9000940385FF03C085EE0E94421A809194034B
:101EA00080FF03C080EE0E94421A8091940384FF59
:101EB00003C084EE0E94421A8091940382FF03C003
:101EC00082EE0E94421A8091940386FF03C086EE40
:101ED0000E94421A8091940383FF03C083EE0E9404
:101EE000421A8091940387FF0EC087EE0C94421A29
:101EF00082EE0E941D1BC4CF86EEFBCF8CE20E94B7
:101F0000421A8CE2F6CF0895EF92FF921F93CF937F
:101F1000DF937C01CCE0D0E0C7010C2E02C0969587
:101F200087950A94E2F7182F1F70812F0E94C20B29
:101F30000E94421A812F0E94C20B0E941D1B2497EF
:101F4000CC3F8FEFD80741F7DF91CF911F91FF90E2
:101F5000EF900895CF92DF92EF92FF920F931F932D
:101F6000CF93DF93E901662309F466C0E42EF12CD8
:101F7000EFEFF0E0E61BF109EE9D8001EF9D100D03
:101F8000FE9D100D1124212FE12FFF27EE1AFF0ACD
:101F90005CE3C52ED12CB6010E94F435FB01BC01D7
:101FA000E69EC001E79E900DF69E900D1124B601AD
:101FB0000E94F435E230F10589F168F4812F262F73
:101FC000210F309781F0242F461B319761F080E07C
:101FD00020E040E008C0E430F10551F128F1842F01
:101FE000861B3597A1F7E42FF0E0E85AF94F4491AA
:101FF000E22FF0E0E85AF94F9491E82FF0E0E85A28
:10200000F94FE49149839883EA83DF91CF911F913F
:102010000F91FF90EF90DF90CF900895862F810F62
:10202000E42F412F2E2FDFCFE42FE61B842FF9CF93
:10203000842F462F410FD7CF842F242FD4CF88E071
:1020400090E00C94C938AB01BC0188E090E00C949E
:10205000E738E5E9F3E083E0808311828FEF828344
:102060008383148260817181828193810C94231017
:102070006091950360FF06C066956F7370E090E015
:1020800080E0089560E070E0CB01089580919903AD
:1020900090E001968430910514F083E090E0809305
:1020A00099036091950370919603809197039091A5
:1020B00098030C942310809199038150990B97FFFA
:1020C00002C090E080E08430910514F083E090E05D
:1020D0008093990360919503709196038091970383
:1020E000909198030C94231080919503EAE9F3E012
:1020F00080FF06C06FE070E08AE993E00C9406165A
:10210000118210821282349683E0E63DF807C1F70F
:10211000F1CF9091950390FF0CC0EAE9F3E0818341
:1021200060834283349693E0E63DF907C1F70C944F
:1021300074100895CF93DF9300D000D0CDB7DEB7F1
:102140002091950320FF0AC09E012F5F3F4F0E9400
:10215000AA0F4B8169818A810E9489100F900F908C
:102160000F900F90DF91CF9108953F924F925F9221
:102170006F927F928F929F92AF92BF92CF92DF9297
:10218000EF92FF920F931F93CF93DF9300D000D075
:10219000CDB7DEB78C01462E542E322E809195039A
:1021A00080FF30C0982F9E77923009F041C09E0189
:1021B0002F5F3F4FC8010E94AA0F4B8169818A811E
:1021C0000E9489108091950300FB87F98093950305
:1021D000902F9695809196038078892B10FB87F934
:1021E000809396034092970350929803332051F0C6
:1021F0006091950370919603809197039091980355
:102200000E9423100F900F900F900F90DF91CF91AD
:102210001F910F91FF90EF90DF90CF90BF90AF9004
:102220009F908F907F906F905F904F903F90089518
:10223000E82FE695EF739EE39E0F9F73943018F49A
:1022400050909803BFCF9AE39E0F9F73993068F424
:10225000881F8827881F90919603292F220F022F0D
:10226000082B97FB112710F9ADCF87E28E0F8F73E4
:102270008A3008F0A7CFE951FF0B21E0E0FD2FEFF6
:10228000EE7FE25CF94F859194916FE070E00E94DF
:10229000F43526033001279F700C1124680188E96A
:1022A000C81A8EEFD80A8AE9E82E83E0F82E96ED58
:1022B000A92E93E0B92E28E6822E99249394C60184
:1022C000B4010E94F4359701452D642D0E94AA0F98
:1022D000C60CD71C84E0E80EF11CAE14BF0479F7DD
:1022E0000E9474106FCF21E00C94B510E5E9F3E083
:1022F0002081221F2227221F30919603432F440F53
:10230000842F822B37FB992790F9089668E671E0B5
:102310000E940836438162810C94731120919503C9
:10232000221F2227221F30919603432F440F842F10
:10233000822B37FB992790F98830910540F4805A19
:102340009E4F40919803609197030C9473110897E6
:1023500068E671E00E940836F4CF609197036A3E08
:1023600090F46A5E80919503881F8827881F90915A
:102370009603292F220F97FB992790F940919803F4
:10238000822B0C9473116FEFEDCF60919703663140
:1023900090F0665180919503881F8827881F90913F
:1023A0009603292F220F97FB992790F940919803C4
:1023B000822B0C94731160E0EDCF40919803483F5D
:1023C00090F4485F80919503881F8827881F90911B
:1023D0009603292F220F97FB992790F96091970375
:1023E000822B0C9473114FEFEDCF4091980348303E
:1023F00090F0485080919503881F8827881F9091FE
:102400009603292F220F97FB992790F96091970344
:10241000822B0C94731140E0EDCF20E00C94B510AA
:102420009091950390FF46C09178811128C09260E9
:1024300090939503662351F06091950370919603F4
:1024400080919703909198030E94231080919503A7
:10245000382F3E773230D9F410929602881F8827A1
:10246000881F90919603292F220F97FB992790F9A7
:102470004091980360919703822B0C940D12843243
:1024800010F09664D5CF8F73880F982BD1CF982FEB
:1024900096959F732EE3290F2F73273110F0363452
:1024A00021F491E090939602D9CF995D9F739A3071
:1024B000A8F6D2CF089561E00C9410128091950394
:1024C00086958F738F5F843208F081E00C945B12E5
:1024D0008091950386958F73815009F483E20C9463
:1024E0005B12E5E9F3E080818160808386958F73DC
:1024F0000C945B1260E00C94101280915F03816079
:1025000080935F030E944825811104C00E94272503
:102510000E9429100E941F106093950370939603E8
:1025200080939703909398036E7761F40E9429102B
:102530000E941F10609395037093960380939703F6
:102540009093980381E0809396028091950380FF99
:1025500004C086958F730C947A120895E5E9F3E030
:1025600080818160808386958F730C947A12E5E96F
:10257000F3E080818E7F808360817181828193818D
:102580000E942310109296022FEF80E792E02150D4
:1025900080409040E1F700C000000C9474108091DE
:1025A000950380FD0C94B7120C947112CF93C82F31
:1025B00080919402909195020E946C26EC2FF0E09D
:1025C000EC5AF94FE491E817190611F008F042C0EF
:1025D0000E946026909395028093940260919302EA
:1025E00070E090E080E00E94E93320E030E04FE7C7
:1025F00053E40E940C332BED3FE049E450E40E9489
:1026000012350E947F350E9486332BE43AE34EE276
:102610005FE30E949F3220EF3BEF48ED52E40E94BF
:1026200012350E94B833462F80919503881F882762
:10263000881F90919603292F220F97FB992790F9D5
:1026400060919703822B0E949A10809193028F5F72
:1026500080939302CF910895CF93C82F80919102D8
:10266000909192020E946C26EC2FF0E0EF5AF94F05
:10267000E491E817190609F0E8F40E9460269093A7
:102680009202809391024091980360919703809108
:102690008F02909190020E949A1080918F029091E7
:1026A0009002019668E671E00E94F43590939002E2
:1026B00080938F02CF910895CF92DF92FF920F9374
:1026C0001F93CF93DF93F82E80918D0290918E020D
:1026D0000E946C26EF2DE695F0E0E25BF94FE49165
:1026E000E817190609F0A8F50E94602690938E025B
:1026F00080938D020AE913E0D0E0C0E088E6C82E9E
:10270000DD24D39480918B0290918C028C0F9D1FBD
:10271000B6010E94F43598014091980360919703A7
:102720000E94AA0F68960C5F1F4FC83681E0D80739
:1027300049F70E94741080918B0290918C02F0FEF8
:1027400010C00196BE010E94F43590938C028093D4
:102750008B02DF91CF911F910F91FF90DF90CF906F
:1027600008950197F2CFCF92DF92EF92FF920F93ED
:102770001F93CF93DF93C82FFF24FA9480FD02C0EC
:10278000FF24F3948091890290918A020E946C2622
:10279000C695EC2FF0E0E55BF94FE491E8171906D8
:1027A00011F008F051C00E94602690938A02809335
:1027B00089020AE913E0D0E0C0E0F801118210823A
:1027C000128294E0C92ED12CE12C809188028E0DCA
:1027D00087FD815F082E000C990B8C179D07E9F48B
:1027E000809198038C9DA0018D9D500D11245595CD
:1027F00047955595479580919503881F8827881F91
:1028000090919603592F550F97FB992790F99801AE
:1028100060919703852B0E94AA0FEF0CF1E0CF1A6D
:10282000D10899F621960C5F1F4FCF30D10529F6BC
:102830000E9474108091880291E0F91210C08111F9
:102840000CC08EE080938802DF91CF911F910F9191
:10285000FF90EF90DF90CF9008958150F3CF90E0FC
:102860000196BE010E940836EDCF0F931F93CF93C0
:10287000DF93C82F80918602909187020E946C2678
:10288000EC2FF0E0E85BF94FE491E817190611F03E
:1028900008F052C00E9460269093870280938602BF
:1028A000CAE9D3E0FE01118210821282349683E0DD
:1028B000E63DF807C1F710E000E080918502082EA0
:1028C000000C990B08171907E4F180911A01082EE2
:1028D000000C990B80179107A4F180919503881F34
:1028E0008827881F90919603592F550F97FB99279A
:1028F00090F99E014091980360919703852B0E9467
:10290000AA0F0F5F1F4F24960F301105B1F60E94DA
:1029100074108091190190918502980F909385020F
:1029200020911A01280F20931A01121614F49E30D8
:102930001CF0819580931901DF91CF911F910F9128
:102940000895198218821A82DCCFEF92FF920F93BA
:102950001F93CF93DF9380918302909184020E9412
:102960006C26883E9340C8F10E94602690938402B2
:1029700080938302C0918102D09182022196C1701E
:10298000DD27D0938202C09381028AE9E82E83E09A
:10299000F82E10E008E7812F86958C0F9D2F911D52
:1029A0008170992797014091980360919703FC01EA
:1029B0000E9FC0010F9F900D11240E94AA0F1F5F50
:1029C000F4E0EF0EF11C1F3031F7DF91CF911F9132
:1029D0000F91FF90EF900C947410DF91CF911F91A5
:1029E0000F91FF90EF900895CF93DF9300D000D028
:1029F000CDB7DEB780917F02909180020E946C2655
:102A0000ECE3F6E02591349182179307C0F18091B1
:102A10007E0281110CC09E012F5F3F4F4FEF6FEF81
:102A200090E080E00E94AA0F8A8180937E020E943B
:102A300060269093800280937F0280917D02813096
:102A400071F0882339F040E0823011F440917E0229
:102A500080E003C080917E0240E060E004C06091AD
:102A60007E0240E080E00E94891080917D0290E02B
:102A7000019663E070E00E94083680937D020F901B
:102A80000F900F900F90DF91CF9108958091960253
:102A90008823B1F190919503892F86958F732EE34A
:102AA000280F2F73243018F482500C94D6122AE386
:102AB000280F2F73233018F486500C942C1327E31F
:102AC000280F2F73263018F489500C945C1321E3DF
:102AD000280F2F73263018F48F500C94B3132BE269
:102AE000280F2F73233018F485510C9435149E77DA
:102AF000903311F40C94A514963411F40C94F4143E
:102B000008958823B9F05198599A5098589A95E0A9
:102B10009A95F1F70000509A589895E09A95F1F738
:102B20000000882311F0519A599885E08A95F1F7B1
:102B300000000895519A5998E8CF8BB18C7F8BB9DA
:102B40005098589A5198599A85E08A95F1F7000063
:102B500008958AB18C7F8AB985E08A95F1F70000E3
:102B6000519A599885E08A95F1F70000509A589843
:102B700085E08A95F1F7000008955098589A85E00D
:102B80008A95F1F700005198599A85E08A95F1F7F6
:102B900000000895CF93DF93D82FC8E08D2F807861
:102BA0000E948115DD0FC150C9F780E00E94811598
:102BB00085E08A95F1F7000085E08A95F1F700003D
:102BC00080E0DF91CF9108953BB1242F20952323FE
:102BD0003BB1432B3FB7F894680F791F86179707CF
:102BE00011F43FBF0895FC015191CF01E8E04BB9CA
:102BF000000000C057FF2BB9550F000000C000C0F7
:102C000000C02BB900C0EA9591F7E8CFAF92BF9210
:102C1000CF92DF92EF92FF920F931F93CF93DF93A8
:102C20007C018B01CFB6D090BC00F8948091BC00A1
:102C30008B7F8093BC000E949D150E94A91584E89B
:102C40000E94CA15000F111F000F111F5701A00E7F
:102C5000B11EE701CA15DB05A9F40E94BD15CFBE60
:102C6000D092BC00579A40E8B801C701DF91CF91DC
:102C70001F910F91FF90EF90DF90CF90BF90AF909A
:102C80000C94E41589910E94CA15E4CFCF93DF9389
:102C9000EC0181E08F878F810E94992488850E94B2
:102CA000AC240E946324EA81FB81309739F06A8961
:102CB0007B89CE010696DF91CF910994DF91CF9168
:102CC0000895CF93DF93EC018881823039F4FB01C2
:102CD000828193810E94180881E08987DF91CF91DA
:102CE0000895FC018081813029F4FB01808191816C
:102CF0000C941808823021F4FB0182819381F8CF73
:102D00000895FC018081813029F4FB01808191814B
:102D10000C942D08823021F4FB0182819381F8CF3D
:102D20000895EF92FF920F931F93CF93DF93EC01DF
:102D30008885811132C0EB80FC8087E5F81A24E198
:102D40002E9DC0012F9D900D1124DC01AF5FBE4F61
:102D50001496ED91FC911597309731F052966D9144
:102D60007C91895F9E4F099584E18E9D80018F9DA6
:102D7000100D11240F5F1E4FF80187810E949F24C0
:102D8000F80180850E94B2240E94632418821F8269
:102D900019861092980210929702DF91CF911F919D
:102DA0000F91FF90EF900895DF92EF92FF920F93B3
:102DB0001F93CF93DF937C01FB018281882391F0E5
:102DC00080911B018F3F71F0C1E0D1E010E000E085
:102DD000DD24D39480911B01082E000C990B8017E1
:102DE000910744F4DF91CF911F910F91FF90EF90E5
:102DF000DF9008958E818823B9F089859A858E1594
:102E00009F0539F480919702909198028E159F0545
:102E100059F0DD868F85811103C0CE010E944616D0
:102E2000CE0106960E9491160F5F1F4F6496D2CF77
:102E3000EF92FF920F931F93CF93DF937C019755EF
:102E40008F3F910509F0D8F520911B01022E000C4F
:102E5000330B2817390714F480931B01FB012281DF
:102E600034E1389F8001399F100D1124E801CF5FB4
:102E7000DE4F2E8792818E81992349F1FA86E98669
:102E80008F5F8E830E9460269C878B870E94D2244E
:102E90008F830E94962488870E94A9249885892B75
:102EA0008887E881F981309731F06A897B89C80188
:102EB000895F9E4F0995F0929802E092970281E017
:102EC000DF91CF911F910F91FF90EF90089588238C
:102ED000B1F38F85882399F3C801895F9E4F0E94C3
:102EE0009116EDCFEF92FF920F931F93CF93DF9345
:102EF00080911B0110E004E18F3FC1F5DF91CF917C
:102F00001F910F91FF90EF900895029FF001039F92
:102F1000F00D1124EF5FFE4FE088F188E114F10419
:102F200019F48AEAE82EF12C029FE001039FD00DEC
:102F30001124CF5FDE4F8E818823B9F08B859C856D
:102F40000E946C26E816F90680F4109F7001112487
:102F50008F85811105C0C7018F5F9E4F0E94461665
:102F6000C701895F9E4F0E9491161F5F212F30E09D
:102F700080911B01082E000C990B821793072CF6E9
:102F8000BDCF0F931F93CF93DF93CDB7DEB72897B5
:102F90000FB6F894DEBF0FBECDBF80911E018F9398
:102FA00080911D018F9388ED91E09F938F931F92E5
:102FB00088E08F938E010F5F1F4F1F930F930E9426
:102FC0002236C8010E947C0B0FB6F894DEBF0FBEFC
:102FD000CDBF28960FB6F894DEBF0FBECDBFDF91F0
:102FE000CF911F910F910895CF93DF93EC010E9431
:102FF000602690939C0280939B02D0939A02C09388
:103000009902DF91CF910895CF93DF938091990238
:1030100090919A02892B59F180919B0290919C0288
:103020000E946C26EC0180911D0190911E018C176D
:103030009D0718F481EE0E94421A809199020E9425
:10304000421A809199020E941D1B80911D0190914E
:103050001E018C179D0718F481EE0E941D1B109213
:103060009C0210929B0210929A0210929902DF9198
:10307000CF91089510921C010C94041880911C01AA
:10308000882321F010921C010C94041881E0809395
:103090001C0108951F93CF93DF93EC01FB01128174
:1030A000112309F459C089339105F0F48333910554
:1030B00038F48B32910521F088F44E970A9788F402
:1030C0000E94041880911C01882331F10E949624EB
:1030D000811122C0CE010E94F4171DC08D97059763
:1030E00078F30E94041818C089319C4559F1CA31FF
:1030F0008CE5D807B0F4C731ECE5DE07E9F0809144
:103100001D0190911E010597C831DC4551F7909340
:103110001E0180931D0110E0812FDF91CF911F913F
:103120000895CB318CE5D80799F078F0CC31DC45A7
:10313000C1F60E943A18EFCF80911D0190911E01B7
:103140000596E5CF0E94C117E6CF0E943E18E3CF57
:1031500081E080931C01DFCF0E94041811E0DCCFD6
:103160009093A2028093A1020895E091A102F091B0
:10317000A202309721F00190F081E02D099480E0C7
:103180000895E091A102F091A202309721F002800F
:10319000F381E02D09940895E091A102F091A2023B
:1031A000309721F00480F581E02D09940895209155
:1031B0009F023091A0022817390771F09093A00266
:1031C00080939F02E091A102F091A202309721F03A
:1031D0000680F781E02D0994089520919D02309199
:1031E0009E022817390771F090939E0280939D02EA
:1031F000E091A102F091A202309721F00084F185C4
:10320000E02D0994089508950C94031981E0089520
:103210000E94572685B7806885BF85B7806885BFBF
:103220000E94A0050E94EC260C947D12BF92CF92C2
:10323000DF92EF92FF920F931F93CF93DF93CDB75F
:10324000DEB72A970FB6F894DEBF0FBECDBF0E943F
:1032500006060E940619882309F471C084EAC82E64
:1032600082E0D82E10E000E0B02E802F0E9466068B
:10327000E82EF601F1906F01F81609F45AC080911A
:103280005F0381FD0E946C0690E080E0FE242F2DFC
:1032900030E0482FB901082E02C0759567950A9451
:1032A000E2F760FF41C08E83BF8281E090E06C0155
:1032B00002C0CC0CDD1C4A95E2F72E2D30E02C210B
:1032C0003D21232B09F480E088870E9460268160DD
:1032D000782F9A8789874E815F8168858A850E94C9
:1032E000F819F801EC55FD4F80818C2580830E94F0
:1032F0003B280E94B5189091A302891789F10E947A
:10330000B5188093A3022A960FB6F894DEBF0FBEBD
:10331000CDBFDF91CF911F910F91FF90EF90DF9084
:10332000CF90BF900C94D20B01968630910509F096
:10333000B0CF0F5F1F4F0E30110509F095CF8FEF03
:1033400089838A831B820E9460268160782F9D83F7
:103350008C8349815A816B818D810E94F819C7CF76
:103360002A960FB6F894DEBF0FBECDBFDF91CF9186
:103370001F910F91FF90EF90DF90CF90BF90089535
:10338000CF93DF93DC018C91682F70E021E030E077
:1033900001C0220F8A95EAF711964C91119750E0DF
:1033A000EA01CE54DD4F988112968C9112978823B2
:1033B000C9F08091C2028823C1F086E0849FF001A9
:1033C000859FF00D1124E60FF71FEE0FFF1FE05D44
:1033D000FE4F408151814D935C93292B2883DF91CF
:1033E000CF910895892F8223E6CF20952923F6CF08
:1033F000CF93DF93CDB7DEB72B970FB6F894DEBF30
:103400000FBECDBF4F83588769877A878B878A85A0
:103410009B85892B21F0CA0189238F3FE1F41E820D
:103420001D8285E0FE013796DE01119601900D9216
:103430008A95E1F749815A816B817C818D819E81DA
:103440000E943C212B960FB6F894DEBF0FBECDBF75
:10345000DF91CF910895CE0107960E94C019DFCF6A
:10346000FC01808191810E94F12392959F7096309A
:1034700041F48091C20291E089278093C202909327
:10348000C1020895CF93C82F882309F4D4C082388D
:10349000C1F40E94B51881FDCEC089E30E941F24AB
:1034A0000E9463242FEF81EE94E0215080409040F1
:1034B000E1F700C0000089E30E942624CF910C941C
:1034C00063248338A1F40E94B51880FDB4C083E55D
:1034D0000E941F240E9463242FEF81EE94E021506C
:1034E00080409040E1F700C0000083E5E5CF8438DC
:1034F000A1F40E94B51882FD9EC087E40E941F249B
:103500000E9463242FEF81EE94E021508040904090
:10351000E1F700C0000087E4CFCF8CEF8C0F813A39
:1035200048F48C2F0E94492A811185C08C2F0E945B
:103530001F24C4CF80E28C0F883048F4C77081E02C
:1035400001C0880FCA95EAF70E949924B7CF8BE58E
:103550008C0F833068F481E890E0C53A31F083E85D
:1035600090E0C63A11F482E890E0CF910C94D7181D
:1035700088E58C0F853108F05EC082EE90E0C83A95
:1035800009F456C089EE90E0C93A09F451C08AEEB8
:1035900090E0CA3A09F44CC085EB90E0CB3A09F4CC
:1035A00047C086EB90E0CC3A09F442C083EB90E050
:1035B000CB3BF1F184EB90E0CC3BD1F187EB90E099
:1035C000CD3AB1F18CEC90E0C03B91F18DEC90E004
:1035D000CE3A71F183E891E0CF3A51F18AE891E077
:1035E000C13B31F182E991E0C23B11F184E991E004
:1035F000C33BF1F081E292E0C43BD1F083E292E080
:10360000C53BB1F084E292E0C63B91F085E292E0E6
:10361000C73B71F086E292E0C83B51F087E292E04E
:10362000C93B31F090E080E0CA3B11F48AE292E0BD
:10363000CF910C94ED18CF910895882309F44BC0D5
:10364000823871F40E94B51881FF45C089E30E9459
:103650001F240E94632489E30E9426240C9463247F
:10366000833859F40E94B51880FF35C083E50E9465
:103670001F240E94632483E5EFCF843859F40E940D
:10368000B51882FF28C087E40E941F240E9463248B
:1036900087E4E2CF9CEF980F913AF0F290E2980F16
:1036A000983050F4877091E001C0990F8A95EAF73D
:1036B000892F0E949F24D2CF9BE5980F933020F44E
:1036C00090E080E00C94D718885A853120F490E07F
:1036D00080E00C94ED180895882321F00E9499242D
:1036E0000C9463240895882321F00E949F240C9455
:1036F000632408958F929F92AF92BF92CF92DF92F0
:10370000EF92FF920F931F93CF93DF937C01D62FFD
:10371000C72FFC01058102950F70128111110E94C3
:10372000B9240E945C24C82E882371F01123B1F0C3
:1037300080E28D0F883090F082E00E9446240E9443
:103740005C2491E0C82EC926DC2ED2949FE0D922B9
:10375000ED2DF0E0E45AF64C0C941C36C12CF4CF5D
:103760000C2F0F70C07F11F00295007F1123A9F07C
:10377000002359F080E28D0F883010F0D11109C07C
:10378000802F0E9499240E9463248D2F0E94421A48
:1037900014C0802F0E94AC24F6CF8D2F0E941D1BD9
:1037A000002359F080E28D0F883010F0D11133C022
:1037B000802F0E949F240E946324F8E0DF1639F0D6
:1037C000DF1648F086EF8D0D8F70823020F40E9456
:1037D000B5180E94D20BCC2009F42DC20E943924C6
:1037E00080FD29C2F70112820E9433240E94BC226C
:1037F000C7010E94281E0E943324DF91CF911F91A0
:103800000F91FF90EF90DF90CF90BF90AF909F907F
:103810008F900C94DD22802F0E94B224CCCFFC2FFD
:10382000FF70BF2EC07FC03219F0B29480EFB82273
:10383000DD2369F0D13049F1112389F1002351F1E1
:10384000F701858180FFA1CF8F70858323C011236D
:1038500081F0011106C00E94D2248B290E946C1BAA
:10386000ACCF0130C1F70E94D2248B290E94CC2416
:10387000A4CF011106C00E94CF248B2D0E94731B80
:103880009CCF013009F499CFF6CF112329F00230F3
:1038900008F093CF8B2DE2CF01118FCFEECF002315
:1038A00061F38D2F0E941D1B88CF8C2F86958695E6
:1038B000837069F0813009F080CF8D2F9C2F937039
:1038C000111102C090E080E00E94ED1876CF8D2F9C
:1038D0009C2F9370111102C090E080E00E94D718D5
:1038E0006CCF112309F1D53F99F0D63FB9F0D43F01
:1038F00049F48091D6039091D70381609093D703C8
:103900008093D6038D2F0E944F270E94302855CFD9
:103910008091D6039091D7038260F0CF8091D60337
:103920009091D7038460EACFD53F89F0D63FA9F0C4
:10393000D43F49F48091D6039091D7038E7F909322
:10394000D7038093D6038D2F0E94B127DECF8091BD
:10395000D6039091D7038D7FF2CF8091D6039091BB
:10396000D7038B7FECCF8C2F837009F047C01111E8
:1039700024CF2D2F229526952770220F220F6D2FF1
:103980006F70862E912CB12CA12C022E04C0880CB5
:10399000991CAA1CBB1C0A94D2F760E070E0CB0112
:1039A000D4FF0FC06FE070E080E090E004C0660FCD
:1039B000771F881F991F2A95D2F76095709580957B
:1039C0009095C695C695C370C23051F080F46829B1
:1039D00079298A299B29C13071F00E947022EDCE8D
:1039E000682979298A299B290E948222E6CE0E9491
:1039F0007022C501B4010E945E22DFCE869511239C
:103A000011F08C2F8170882309F4D7CE2D2F2295A9
:103A100026952770220F220F6D2F6F70862E912C06
:103A2000B12CA12C022E04C0880C991CAA1CBB1C12
:103A30000A94D2F760E070E0CB01D4FF0FC06FE0D2
:103A400070E080E090E004C0660F771F881F991F28
:103A50002A95D2F76095709580959095C695C695F4
:103A6000C370C23051F080F4682979298A299B29D2
:103A7000C13071F00E943323A0CE682979298A29A8
:103A80009B290E94452399CE0E943323C501B4018E
:103A90000E94212392CEE0E2ED0FE53108F04CC008
:103AA000F0E0E459F64C0C941C36DF708C2F8F71CB
:103AB000112321F00E94BC228D2FD0CE0E94DD2246
:103AC0008D2FDCCE112339F0011177CE8C2F8F7121
:103AD0000E94002372CE023008F06FCEF7CF8C2FF9
:103AE0008F71112339F00E94BC2267CE8C2F8F7109
:103AF0001123C9F30E94DD2260CE112329F08C2FFF
:103B00008F710E94A72259CE0E94A22256CE112365
:103B100049F0CF718C2F0E94BC2263E08C2F0E9451
:103B20003D244BCE81E00E944624023008F445CE6D
:103B300082E00E94462441CE112329F0011125CEB6
:103B40008C2F8F71D0CF002369F0D93309F0A9CE23
:103B5000FFEF27EE83E0F15020408040E1F700C006
:103B600000009FCE8C2F8F71C5CF4C2F4F706D2FC3
:103B7000C7010E943D070E94D6211FCED23F71F19E
:103B8000C8F4D03F01F1D13FB9F18091C1020023C7
:103B900009F446C0882341F08091C20291E0892750
:103BA0008093C2021092C1028D2F112389F10E94CD
:103BB000421A16C0D43FD9F078F0D53F31F7111131
:103BC0000FC081E006C0112359F08091C20291E03C
:103BD00089278093C20204C081E018271093C20293
:103BE0004C2F4F706D2FC7010E94D40BE6CD1111E1
:103BF000F7CF1092C202F4CF112339F08091C102A5
:103C0000882319F31092C102EBCF0023F1F2E8CF21
:103C10000E941D1B86E0F70111928A95E9F7E0CF1B
:103C20008823F1F21111DCCF8091C20291E0892743
:103C30008093C202E7CFDF91CF911F910F91FF9048
:103C4000EF90DF90CF90BF90AF909F908F900895AE
:103C50000F931F93CF93DF93EC018B819C81892B72
:103C600029F08881998189238F3F29F4DF91CF91B1
:103C70001F910F910895CE010E9453088823B1F33C
:103C8000688179818A810E94FB238C010E945723DD
:103C90000E945B22B801CE01DF91CF911F910F915D
:103CA0000C947A1B0E94B9240E94C9240E942D24DE
:103CB0000E9463240E94C0280E94302890E080E087
:103CC0000E94D71890E080E00C94ED180E94A62482
:103CD0000C94521E0E94F123E92FE295EF70E250FE
:103CE000EE3070F4F0E0EF57F64C0C941C36803F49
:103CF00019F020F4803E20F481E00895843FE1F340
:103D000080E00895803EC0F3813FD1F7F5CF93FB6B
:103D1000882780F90895CF93DF9300D000D00F92C9
:103D2000CDB7DEB70F900F900F900F900F90DF91EF
:103D3000CF910895CF93DF9300D000D000D0CDB7BE
:103D4000DEB726960FB6F894DEBF0FBECDBFDF916B
:103D5000CF9108951F93CF93DF93C091C30216E0D4
:103D60008091C4028C1304C0DF91CF911F910895FC
:103D7000D0E01C9FF0011D9FF00D1124EB53FD4F6F
:103D80004081518162817381848195810E949A1E54
:103D90002196C770E5CF4091F5025091F6026091EF
:103DA000F7027091F8028091F9029091FA020C9456
:103DB0009A1E2091C3029091C40256E0291302C0BA
:103DC00080E0089530E0529FF001539FF00D1124E0
:103DD000EB53FD4F7181761306C07081781303C0D9
:103DE0007281741304C02F5F3F4F2770E7CF81E0CB
:103DF00008951F93CF93DF938091FA02807FC1F4DF
:103E00008091F7028823A1F08091C302C091C4027F
:103E10006091F5027091F6024091F8025091F9021A
:103E2000D62FD723DA01A095B09516E0C81304C0A9
:103E3000DF91CF911F91089590E04115510511F048
:103E4000DF3F31F401968770F1CF2A0F3B1F17C077
:103E5000189FF001199FF00D1124EB53FD4F2181A4
:103E60002713F0CF20812613EDCF22812111EACF35
:103E7000238134812417350740F3241B350B2A3A5C
:103E8000310500F72091FA022F7020612093FA0289
:103E900026E0289FF001299FF00D1124E653FD4FE5
:103EA00080818F708061808385EF92E00E94281E60
:103EB000DF91CF911F910C94AA1E9F92AF92BF9257
:103EC000CF92DF92EF92FF920F931F93CF93DF93E6
:103ED000CDB7DEB761970FB6F894DEBF0FBECDBF8A
:103EE0008C0185E0F801DE011D9601900D928A9506
:103EF000E1F7D801DC901196EC9011971296CC90D6
:103F000012978091F8029091F902009709F492C1FA
:103F10002091F5023091F602422F43234F3F09F4DE
:103F200089C11396AD90BC909090F702992009F446
:103F300022C1A816B906E0F1F501E81BF90BCF0183
:103F4000FF24F3948A3A910508F0F12C8091FA024B
:103F5000982F907FFF2009F4C7C091118EC0FC2CD0
:103F60003E112BC02D1129C0C11027C08F70806158
:103F70008093FA020E94CB1E85EF92E00E94281ED9
:103F80008091FA02D80115968C938F2D61960FB609
:103F9000F894DEBF0FBECDBFDF91CF911F910F917F
:103FA000FF90EF90DF90CF90BF90AF909F900895DB
:103FB000809590958A0D9B1DC3CFA114B10429F063
:103FC0008E2D8D218F3F09F054C180E080FF16C0F7
:103FD0004C2D6E2D8D2D0E94D91E882379F085EFF2
:103FE00092E00E94281E86E0E5EFF2E0DF011D92DC
:103FF0008A95E9F70E94CB1EF12CC7CFAB2829F098
:104000008E2D8D218F3F09F031C180E0B82FB17026
:10401000AB2E80FF29C04C2D6E2D8D2D0E94D91EF8
:10402000B82E811121C0DD86EE868D859E850E9489
:10403000F123292F22952F70223050F0243078F46C
:104040009F7051F0F8019581907F31F4FB2C9DCF4A
:104050009F7011F08823D1F3805E8830B8F3C801D7
:104060000E94281EBA2CF2CFCC2009F48ECF80916A
:10407000FA0281608093FA02BFCF3E1106C02D1173
:1040800004C0D801CC2009F49CC0DD86EE868D8565
:104090009E850E946A1E882319F1CC2009F1809127
:1040A000FA02803270F02091F5023091F6023887E2
:1040B0002F831986BB86AA868C87CE0107960E941D
:1040C000281E86E0F801A5EFB2E001900D928A95D6
:1040D000E1F70E94F91E0E94CB1EFF24F39455CFF6
:1040E000C8010E94281EF9CF911115C07A2DB98AF6
:1040F000A88A4D2D5E2D6C2D89890E948B1E85EF1F
:1041000092E00E94281E86E0E5EFF2E0DF011D92BA
:104110008A95E9F763C03E1112C02D1110C0C1107D
:104120000EC0F8018583C8010E94281EE5EFF2E069
:1041300086E0DF011D928A95E9F7F92C26CFDD860E
:10414000EE868D859E850E946A1E882349F2CC20CA
:1041500039F28091FA02803208F4B3CF2091F5024F
:104160003091F6023A8329831B82BD82AC828E8312
:10417000CE010196A4CFA816B90698F1F501E81B67
:10418000F90BCF01F12C8A3A910508F049C0FC2CBB
:10419000CC2009F4A5CF3E1132C02D1130C0809142
:1041A000FA0280FD23C0982F907F01F1D801159667
:1041B0008C931597903F39F0982F907F905F8F7078
:1041C000892B15968C93C8010E94281E86E0F80161
:1041D000A5EFB2E001900D928A95E1F70E94CB1E07
:1041E000D4CE809590958A0D9B1DCCCF86E0F801AA
:1041F000A5EFB2E001900D928A95E1F7C6CEDD867B
:10420000EE868D859E850E946A1E81115ACF80910F
:10421000FA0281608093FA02C8010E94281EB5CE7E
:104220007A2DB98AA88A4D2D5E2D6C2D89890E9420
:104230008B1E69CFCC2009F453CFDD86EE868D85A9
:104240009E850E946A1EF82E882309F449CF86E0D5
:10425000F801A5EFB2E001900D928A95E1F785EFA4
:1042600092E00E94301A0E94F91EB8CF81E08C259E
:10427000CDCE81E08C25AACE1F93CF93DF93CDB70F
:10428000DEB72C970FB6F894DEBF0FBECDBF4F83BD
:10429000588769877A878B879C87CE0107960E940B
:1042A0005D1F882369F08A859B85892B39F04F81B2
:1042B0005885842F85238F3F09F071C016E05FC0B9
:1042C00086E0FE013796DE01119601900D928A95E7
:1042D000E1F78A859B85892B89F388859F818923CE
:1042E0008F3F61F32091C40230E0C90101968770CD
:1042F00099274091C3024817190671F40E94661E5F
:104300001092C4021092C30286E0E5EFF2E0DF01F2
:104310001D928A95E9F7D2CF96E0929FD001939FA4
:10432000B00D1124AB53BD4FFE01319601900D929B
:104330009A95E1F78093C4020E94AA1EBFCF819F85
:10434000C00111248B539D4F0E945D1F8823E9F00B
:10435000E091C3021E9FF0011124EB53FD4F4081F9
:10436000518162817381848195810E949A1E80911E
:10437000C30290E00196877099278093C3028091D1
:10438000C3029091C4028913DACF2C960FB6F89429
:10439000DEBF0FBECDBFDF91CF911F91089569851C
:1043A0007A858B859C850E949A1E88CFEF92FF921A
:1043B0000F931F93CF93DF938C01892B81F0F12C06
:1043C000EE24E394E8012196F8018491843770F497
:1043D000843008F05FC08130B1F08230A1F1DF910C
:1043E000CF911F910F91FF90EF900895853709F4B9
:1043F0004CC008F43DC09CE7980F903780F78F774A
:104400000E941D1B49C00E5F1F4FFE01849190E268
:10441000980F983060F48770FE2D01C0FF0F8A95C9
:10442000EAF78F2F0E94BC240E94632402C00E94DE
:10443000421A8F2D815030F2EFE9FFE03197F1F70A
:1044400000C00000F7CF0E5F1F4FFE01849190E285
:10445000980F983050F48770FE2D01C0FF0F8A9599
:10446000EAF78F2F0E94C224DFCF0E941D1BE1CFED
:104470000E5F1F4FFE01C491C150D8F28FE99FE03B
:104480000197F1F700C00000F7CF0E5F1F4FFE014C
:10449000F490CFCF0E94421A8E01CBCF08950E9494
:1044A0004E226093360370933703809338039093C2
:1044B00039030C94521E08950C944F220F931F93AE
:1044C000009136031091370320913803309139035E
:1044D000602B712B822B932B1F910F910C944F22E9
:1044E0000F931F93009136031091370320913803E7
:1044F0003091390360237123822393231F910F91FD
:104500000C944F220F931F930091360310913703A1
:104510002091380330913903602771278227932730
:104520001F910F910C944F220C9498070E94942293
:104530006093320370933303809334039093350375
:104540000C94521E60E070E0CB010C9496220F9305
:104550001F9341E050E060E070E08A019B0104C0DD
:10456000000F111F221F331F8A95D2F7C901B8010E
:104570001F910F910C9496220F931F9341E050E0EE
:1045800060E070E004C0440F551F661F771F8A95D6
:10459000D2F78091320390913303A0913403B0910C
:1045A00035038A019B01082B192B2A2B3B2BC901B0
:1045B000B8011F910F910C9496220F931F9341E025
:1045C00050E060E070E004C0440F551F661F771F85
:1045D0008A95D2F7CB01BA01609570958095909538
:1045E000009132031091330320913403309135034D
:1045F00060237123822393231F910F910C949622A1
:104600000F931F9341E050E060E070E004C0440F5E
:10461000551F661F771F8A95D2F7809132039091BC
:104620003303A0913403B09135038A019B0108271D
:1046300019272A273B27C901B8011F910F910C9414
:1046400096220F931F930091320310913303209110
:10465000340330913503602B712B822B932B1F91E8
:104660000F910C9496220F931F9300913203109197
:104670003303209134033091350360237123822367
:1046800093231F910F910C9496220F931F930091E7
:1046900032031091330320913403309135036027A6
:1046A0007127822793271F910F910C9496220895CA
:1046B000E92FEE0FE90FEE0F8E0F982F977041E064
:1046C00001C0440F9A95EAF786958695869595E000
:1046D000899FF0011124E550FD4F30E020E070E0AB
:1046E0005191DF011197CB01022E02C0969587955B
:1046F0000A94E2F7817081958527842385278C931E
:104700002F5F3F4F2530310559F70895E92FEE0F00
:10471000E90FEE0F8E0F982F9770869586958695E8
:1047200025E0829FF0011124E550FD4F50E040E06C
:1047300080E0219130E0092E02C0369527950A9439
:10474000E2F721703327042E01C0220F0A94EAF702
:10475000822B4F5F5F4F4530510559F70895BF9247
:10476000CF92DF92EF92FF920F931F93CF93DF933D
:104770008C01C0903203D0903303E0903403F0906A
:1047800035038091360390913703A0913803B0919F
:104790003903C82AD92AEA2AFB2ACFE1D0E0BC2E65
:1047A000D701C6010C2E04C0B695A795979587959D
:1047B0000A94D2F780FD0EC0219788F7B12C8B2D7B
:1047C000DF91CF911F910F91FF90EF90DF90CF90ED
:1047D000BF900895B8018C2F0E94F10B019761F3EF
:1047E000EECFCF93DF93EC010E94AF23BE01DF91A8
:1047F000CF910C94F10B1F93CF93DF93EB0190912A
:10480000C002992331F0CB01DF91CF911F910C941D
:10481000F123882379F0CB010E94AF23182F682F52
:10482000CE010E945823BE01812FDF91CF911F91AD
:104830000C94F10BCB010E948623182FF4CF682F24
:1048400080911F01909120010C94C125682F8091C7
:104850001F01909120010C94CC2580911F01909113
:1048600020010C94D72580913A03859585958595EF
:10487000089580913A038770089598E0899F900188
:104880001124622B60933A030C94BC2290913A035A
:104890008095892380933A03282F277061F4282F6D
:1048A000082E000C330B9217130629F08595859579
:1048B00085950C94DD22089590913A03977081E0DC
:1048C00009F480E00895E0911F01F09120018091AA
:1048D0005E038083E0911F01F0912001808190911F
:1048E0005D03892B8083E0911F01F091200180817D
:1048F00090915C03892B808390913B03992381F0F5
:10490000E0911F01F09120018081892B80838091AB
:104910001F01909120010E946425811110923B0398
:1049200080911F01909120010C94C11880915E0329
:10493000089590915E03892B80935E03089580957E
:1049400090915E03982390935E03089510925E0306
:10495000089580915D03089590915D03892B809364
:104960005D030895809590915D03982390935D0376
:10497000089510925D03089590915C03892B8093B4
:104980005C030895809590915C03982390935C0359
:10499000089510925C03089580933B03089510924C
:1049A0003B03089580913B03089590930102809307
:1049B00000020895CF92DF92EF92FF926C01EE24F5
:1049C000FF2420E0C114D104E104F10419F0C7016F
:1049D000B60120E1C72ED82EE92EFF24C114D10440
:1049E000E104F10419F0285FC701B6016B017C01F5
:1049F00054E0F694E794D794C7945A95D1F7C1142C
:104A0000D104E104F10419F02C5FC701B6016B0178
:104A10007C0142E0F694E794D794C7944A95D1F785
:104A2000C114D104E104F10419F02E5FC701B601ED
:104A30009695879577956795672B682B692B09F075
:104A40002F5F822FFF90EF90DF90CF9008956DEE53
:104A50007EEF90E080E00E94F33860E082E090E03A
:104A60000E94D53860E083E090E00E94D53860E095
:104A700084E090E00E94D53860E085E090E00E94FC
:104A8000D53840E050E0BA0188E090E00C94E73877
:104A900090E080E00E94CF3821E08D3E9E4F09F0EB
:104AA00020E0822F089582E090E00C94C13883E0EA
:104AB00090E00C94C13884E090E00C94C138682FE9
:104AC00084E090E00C94D538FC0131969C01205E86
:104AD0003F4F80E0919191118F5FE217F307D1F77B
:104AE00008959C01FC0132969FEF80E041914617AA
:104AF00051F09F3F19F4411101C0982F8F5F8E3103
:104B0000A9F79F3F09F40895290F311D97FD3A95A4
:104B1000F90162830895FC01329680962191261353
:104B200003C0DF0111971C92E817F907B9F7089540
:104B3000E62FE695E695E695EF3169F0E80FF92F57
:104B4000F11D677021E030E001C0220F6A95EAF79D
:104B50008181822B81830895E62FE695E695E6957F
:104B6000EF3171F0E80FF92FF11D677021E030E0AF
:104B700001C0220F6A95EAF72095818128232183BD
:104B8000089520912F01222329F02091DC0327FD95
:104B90000C9498250C94712520912F01222329F043
:104BA0002091DC0327FD0C94AC250C948B25FC0193
:104BB000319680961192E817F907E1F70895089564
:104BC0000C94DF258091E203843049F11092600358
:104BD00088E190E020E40FB6F894A89580936000F7
:104BE0000FBE2093600080E00E94D20B0E94E0255F
:104BF00083B7817F846083BF83B7816083BF7894EC
:104C0000889583B78E7F83BF0FB6F894A89580915F
:104C10006000886180936000109260000FBE08956C
:104C20000895CF930E94B9050E9406060E9410269F
:104C3000C0E08C2F0E946606811105C0CF5FCE3088
:104C4000C1F7CF91089581E0FCCF08950C942526FB
:104C50000E94661E0E94B5180E94D20B0C94262654
:104C60001F921FB61F9211248F939F93AF93BF93F0
:104C700080916003811113C08091D8039091D90372
:104C8000A091DA03B091DB034196A11DB11D809381
:104C9000D8039093D903A093DA03B093DB03BF91B9
:104CA000AF919F918F911F901FBE1F90189582E02A
:104CB00084BD93E095BD9AEF97BD80936E000895F3
:104CC0002FB7F8948091D8039091D903A091DA037B
:104CD000B091DB032FBF0895CF92DF92EF92FF9246
:104CE0000F931F932FB7F8944091D8035091D90395
:104CF0006091DA037091DB032FBF6A017B01EE2420
:104D0000FF248C0130E020E0C016D106E206F30655
:104D100050F0481B590BCA011F910F91FF90EF9063
:104D2000DF90CF90089541505109F3CF78941F92AE
:104D30001FB61F9211248F939F93AF93BF938091BF
:104D4000D8039091D903A091DA03B091DB030196C7
:104D5000A11DB11D8093D8039093D903A093DA03CA
:104D6000B093DB03BF91AF919F918F911F901FBEB6
:104D70001F901895F89481E08093E00080E2809382
:104D8000D800E9ECF0E010828FE19EE40197F1F7A2
:104D900000C000001DBA109268001CBC10BE1FBAF3
:104DA00010927A0010926E0010926F0010927100B3
:104DB000109272001082ECEBF0E0108214B817B879
:104DC0001AB81DB810BA108215B818B81BB81EB89A
:104DD00011BA0C94003F08950E944825811102C029
:104DE0000E9427250E94532580935F030E945B2524
:104DF00090E09093DD038093DC030E945725682F99
:104E000070E090E080E00C945C228091650380FF6C
:104E100012C06091230185E0689FB001112475954F
:104E200067957595679560387105A8F561157105E9
:104E3000A1F1862F089581FF09C06091230185E0CB
:104E4000689FB001112475956795EDCF609123019E
:104E500082FD0AC0809166038823D1F090912201DF
:104E600060912301891728F085E0689FB001112423
:104E7000DACF869FB001112485E0869F9001879F3D
:104E8000300D1124692F70E0C9010E940836CBCF84
:104E900065E070E0CECF8FE7089581E00895803F10
:104EA00031F40E9405278195809369030895813F1D
:104EB00019F40E940527F8CF823F31F40E9405279C
:104EC0008195809368030895833F19F40E94052714
:104ED000F8CF893F21F481E080936A0308958A3FE7
:104EE00011F48FEFF9CF8B3F21F48FEF80936B0399
:104EF00008958C3F11F481E0F9CF843F31F4809123
:104F000067038160809367030895853F21F4809152
:104F100067038260F7CF863F21F480916703846046
:104F2000F1CF873F21F4809167038860EBCF883F02
:104F300021F4809167038061E5CF8D3F31F480914A
:104F4000650381608093650308958E3F21F480910D
:104F500065038260F7CF8F3FB9F780916503846066
:104F6000F1CF90916803803F41F48091690387FD00
:104F700010926903992371F00895813F29F480917B
:104F800069031816ACF3F6CF823F81F497FFF2CF96
:104F9000109268038091690390916A03892B909124
:104FA0006B03892B49F7109266030895833F19F428
:104FB000191674F3DFCF893F39F480916A0318160C
:104FC000CCF610926A03D6CF8A3F29F480916A0307
:104FD00087FFD0CFF6CF8B3F39F480916B0387FFEB
:104FE000C9CF10926B03C6CF8C3F29F480916B031D
:104FF0001816BCF3BFCF843F31F4809167038E7FD6
:1050000080936703B7CF853F21F4809167038D7F3D
:10501000F7CF863F21F4809167038B7FF1CF873FE5
:1050200021F480916703877FEBCF883F21F4809143
:1050300067038F7EE5CF8D3F31F4809165038E7FCE
:105040008093650397CF8E3F21F4809165038D7F18
:10505000F7CF8F3F09F08ECF809165038B7FF0CF24
:1050600087E693E00E94CC180E946026909362032A
:105070008093610308951F93CF93DF938091610321
:10508000909162030E946C26AC019091660320917E
:10509000240130E0911106C0209164038AE0289F2A
:1050A000900111244217530778F020916803109162
:1050B0006903D0916A03C0916B03211109C0812F4C
:1050C0008D2B8C2B09F058C0DF91CF911F91089543
:1050D0009F3F19F09F5F90936603121624F40E947D
:1050E0000527809368038091680387FF05C00E94AD
:1050F0000527819580936803111624F40E940527E3
:10510000809369038091690387FF05C00E9405278A
:10511000819580936903309168033323C1F0209116
:1051200069032223A1F045EB3403C0011124892F28
:10513000911101C081E08093680345EB2403900145
:105140001124832F311101C081E08093690381E034
:105150001D161CF0DD2319F08FEF80936A0381E0A8
:105160001C161CF0CC2319F08FEF80936B03DF919A
:10517000CF911F910C9430289F3F09F0ABCFBCCF4B
:1051800085E0E7E6F3E0DF011D928A95E9F71092EA
:105190006603109265030895833081F128F481300D
:1051A00059F08230D1F00895853009F449C0B8F142
:1051B000863009F456C0089580916403482F460F45
:1051C0005527551F4F3F510524F4680F6093640322
:1051D00008958FEF80936403089580912401482FF0
:1051E000460F5527551F4F3F510524F4680F609314
:1051F000240108958FEF8093240108958091230165
:10520000482F460F5527551F4F3F510524F4680F6F
:105210006093230108958FEF809323010895809177
:105220002201482F460F5527551F4F3F510524F4A3
:10523000680F6093220108958FEF809322010895F3
:1052400080916303482F460F5527551F4F3F510547
:1052500024F4680F6093630308958FEF80936303D2
:10526000089580912101482F460F5527551F4F3F24
:10527000510524F4680F6093210108958FEF809306
:1052800021010895833011F128F4813049F08230F2
:1052900091F00895853081F120F18630C1F10895B3
:1052A00080916403681720F4861B8093640308953B
:1052B00010926403089580912401681720F4861BDE
:1052C0008093240108951092240108958091230170
:1052D000681720F4861B8093230108951092230100
:1052E000089580912201681720F4861B8093220183
:1052F000089510922201089580916303681720F4A5
:10530000861B809363030895109263030895809130
:105310002101681720F4861B8093210108951092C3
:10532000210108950F931F9341E050E060E070E089
:105330008A019B0104C0000F111F221F331F8A9591
:10534000D2F7C901B8010E945C221F910F910C9401
:10535000661E873208F043C08E3108F089C0803164
:1053600009F47BC0C8F4873009F469C028F486309A
:1053700009F45CC080E008958B3009F455C08E308C
:10538000C9F790915F03892F8B7F92FF8460809390
:105390005F0382FD20C048C0863109F445C068F42F
:1053A000813141F70E94661E9091DC03892F97FBA3
:1053B00087F980588093DC0337C08931A9F18B319C
:1053C000C9F690915F03892F8D7F91FF8260809352
:1053D0005F0381FF29C080915F0381603BC08833F8
:1053E00019F150F4893221F0853311F0873211F62A
:1053F00080E00E94922918C08334D1F328F48A33C4
:1054000008F4B8CF8953F5CF883409F0B3CF0E94A0
:10541000661E2FEF83ED90E3215080409040E1F72E
:1054200000C000000E94BA2681E0089580915F03C9
:10543000807F80935F0381E080936D030895909156
:105440005F03892F8E7F90FF816080935F0380FDD3
:10545000EBCF817F80935F03E7CF90915F03892F2C
:10546000877F93FF886080935F0383FDB4CFDCCF99
:105470008D51BFCF80E008950C943A2A8E518A3026
:1054800030F4E82FF0E0E352FE4F8081089580E091
:105490000895CF93C82F80916D038130E1F0882368
:1054A00031F08230F1F110926D0380E012C0E09192
:1054B0001F01F09120018081813111F08232A9F722
:1054C0008C2F0E943A2A811120C08C2F0E94A9297A
:1054D0008170CF910895E0911F01F09120018081AA
:1054E000813171F3823261F38C2F0E943C2A811149
:1054F0000AC0C43199F060F4CB3029F0C03141F7D3
:1055000082E080936D0381E0E3CF81E090E0E0CF23
:10551000C93221F0C833B9F380E0DACF10926D03BD
:10552000FBCFC93219F188F4C43101F120F4C7303E
:1055300081F181E0CECF82EE8C0F8630D0F78C2FB8
:105540000E943E2A80936C03F4CFCE3401F140F4E4
:105550006AE0CB3471F780916C030E94CC28E9CFCC
:10556000C13579F061E0C235B1F3E3CF80916C03CE
:10557000882319F010926C03DCCF81E080936D03D7
:10558000A8CF61E080916C030E944229D2CF6AE0EB
:10559000F9CF1092640384E18093240188E0809322
:1055A000230188E280932201109263038FEF80939E
:1055B0002101BFCF8091910308959FB7F894109275
:1055C00070039FBF9091E203943009F049C020918D
:1055D000E9002F709091EC0090FD30C090E0922B8C
:1055E00024E02093E9002091EB0020FF36C02091B9
:1055F000EE0027FF32C020916E03222321F020917C
:10560000E80025FF2AC010926E0326E03091E800E2
:1056100035FF16C08093F1008091E80085FD29C018
:105620008091E80080FFFCCF8091E8008E77809326
:10563000E8009F709093E90080E0089590E8CFCF54
:105640003091E203343049F43091EB0035FD05C070
:10565000215041F481E080936E039F709093E900A4
:105660008FEF0895EFE9FFE03197F1F700C00000F8
:10567000CDCF8FB7F89421E0209370038FBFD9CF9F
:105680000F931F93CF93DF9300D00F92CDB7DEB768
:105690008C010E94FC2D823011F0843019F583E0DA
:1056A00089831B830A838093E9008FEF9091E80040
:1056B000815095FD06C095ED9A95F1F70000811196
:1056C000F5CF8091E80085FF0DC050E040E063E039
:1056D00070E0CE0101960E94192E8091E8008E772D
:1056E0008093E8000F900F900F90DF91CF911F9162
:1056F0000F910895CF93DF9300D00F92CDB7DEB70F
:105700002091E203243031F522E029838058910969
:105710009B838A8383E08093E9008FEF9091E80078
:10572000815095FD06C095ED9A95F1F70000811125
:10573000F5CF8091E80085FF0DC050E040E063E0C8
:1057400070E0CE0101960E94192E8091E8008E77BC
:105750008093E8000F900F900F90DF91CF91089504
:10576000CF93DF93EC010E94FC2D823011F0843046
:10577000F9F482E08093E9008FEF9091E800815086
:1057800095FD06C095ED9A95F1F700008111F5CFD2
:105790008091E80085FF0CC050E040E065E070E0DB
:1057A000CE010E94192E8091E8008E778093E80048
:1057B000DF91CF910895CF93DF93EC010E94FC2DF0
:1057C000823011F08430F9F480912F018823F1F0B8
:1057D0008091DC0387FF1AC085E08093E9008FEF9A
:1057E0009091E800815095FD06C095E19A95F1F7FA
:1057F00000008111F5CF8091E80050E040E060E2C8
:1058000070E085FD1AC0DF91CF91089581E080930B
:10581000E9008FEF9091E800815095FD06C095ED6D
:105820009A95F1F700008111F5CF8091E80085FF8E
:10583000EACF50E040E068E070E0CE010E94192E0F
:105840008091E8008E778093E80080E2FE01A1E776
:10585000B3E001900D928A95E1F7D5CF8091E103F5
:10586000811109C00E94A72F0E9404308091E2009C
:1058700084608093E20008951092E10308950895F2
:1058800008950C94282620916F032F5F822F62E3E6
:105890000E94E835992319F020936F030895109220
:1058A0006F03809170038823E9F08091E2038430D4
:1058B000B9F49091E9009F708091EC0080FD13C0D5
:1058C00080E0892B94E09093E9009091EB0090FFA9
:1058D00004C09091EE0097FD0AC08F708093E9009C
:1058E00010927003089580E8ECCF1092F10090912F
:1058F000E80095FDFACF9091E80090FFEECF9091EF
:10590000E8009E779093E800E8CF42E061EC81E008
:105910000E94252F42E061EC82E00E94252F42E0A8
:1059200061EC83E00E94252F42E261EC84E00E945A
:10593000252F42E261EC85E00C94252F8091E40351
:10594000833009F455C030F4813071F1823009F4AC
:1059500091C008958A3009F47DC08B3009F463C08A
:10596000893009F044C08091E303813209F03FC0DF
:105970008091E7039091E803009711F00497B9F53F
:105980008091E800877F8093E8008091E80082FFA3
:105990002AC08091F100809391038091E8008B7779
:1059A0008093E8000C94592F8091E303813AF9F435
:1059B0008091E800877F8093E8008091E7039091D1
:1059C000E803892B61F460E281E793E070E00E94D4
:1059D000682E8091E8008B778093E800089560E05E
:1059E00090E080E0F3CF8091E2038111CECF089563
:1059F0008091E303813AD9F78091E7039091E8031E
:105A0000892BA9F78091E800877F8093E800809137
:105A1000E80080FFFCCF80912F018093F1008091FE
:105A2000E8008E77BDCF8091E303813201F780914A
:105A3000E7039091E803892BD1F68091E800877FF6
:105A40008093E8000E94592F8091E50380932F01F5
:105A50000C94661E8091E303813249F68091E80040
:105A6000877F8093E8000E94592F8091E6038093FE
:105A7000920308958091E303813A09F0B8CF8091B1
:105A8000E800877F8093E8008091E80080FFFCCFEA
:105A900080919203C2CF84B7877F84BF0FB6F894FA
:105AA000A8958091600088618093600010926000EA
:105AB0000FBE80E880936100109261000E9404197B
:105AC0000E94A72F0E9404308091E200846080939E
:105AD000E2008DED9AE20E94D52478940E948332F0
