:100000000C948D030C94AA030C94AA030C94AA03D9
:100010000C94AA030C94AA030C94AA030C94AA03AC
:100020000C94AA030C94AA030C94F32A0C94C62BE8
:100030000C94AF210C94AA030C94AA030C94AA0369
:100040000C94AA030C94AA030C94AA030C94AA037C
:100050000C94AA030C9415220C94AA030C94AA03E2
:100060000C94AA030C94AA030C94AA030C94AA035C
:100070000C94AA030C94AA030C94AA030C94AA034C
:100080000C94AA030C94AA030C94AA030C94AA033C
:100090000C94AA030C94AA030C94AA030C94AA032C
:1000A0000C94AA030C94AA030C94AA030763423687
:1000B000B79BD8A71A39685618AEBAAB558C1D3CF9
:1000C000B7CC5763BD6DEDFD753EF6177231BF00BD
:1000D0000000803F05A84CCDB2D44EB93836A902F5
:1000E0000C50B9918688083CA6AAAA2ABE00000036
:1000F000803F6572676F646F785F657A2F646566AD
:1001000061756C74204020302E362E35382D3132FA
:100110002D676134653932342D64697274790065F4
:1001200072676F646F785F657A2F64656661756C5E
:1001300074204020302E362E35382D31322D676117
:1001400034653932342D6469727479000000F0A18D
:100150002E004C002A00E100354100001E00140072
:1001600004001D6134004D001F001A0016001B0022
:10017000E1042A00200008000700060050002C00BF
:1001800021001500090019004F004A002200170045
:100190000A00050000006564500001530000006F74
:1001A0000000E3004F000153000000670000E20080
:1001B00023001C000B00110000002961240018001E
:1001C0000D00100052004B0025000C000E00360000
:1001D00051002800260012000F0037002F002B00CE
:1001E000270013003342386130004E002D003100EB
:1001F0003468E500C1000000DD5C01000100010081
:10020000DC5C00003A001E02200222020100010014
:100210003B001F02210223020100C75C3C002F02A9
:1002200026022F000100C85C3D003002270230008A
:10023000010001003E003102350035020000C15CC2
:1002400001000100000001000000010001000100A8
:10025000000001000000C05C3F0052005100240279
:100260000000DE5C4000240021001E0001000100AF
:100270004100250022001F003700C35C4200260019
:10028000230020002700C45C430025022E02310019
:100290002E000100440045000100010001000000A3
:1002A0000100010001000100010000000100010047
:1002B000010001000100010001000100F200010045
:1002C000010001000100F000F1000100F400010054
:1002D00001000100F3000100F50001000100010030
:1002E0000100010000000100010001000000010008
:1002F00000000100010001000000010000000100F9
:1003000001000100010001000000010001000100E6
:1003100001000100A9000100010001000100AC0082
:10032000AA00B600010001000100AB00A800010016
:1003300001000100010001000100010001000100B5
:10034000AE000100010000000000000000000000FD
:100350002A2B280000000000000000000000000020
:1003600000000029000000002C1E3420212224342B
:100370002627252E362D3738271E1F2021222324FD
:1003800025263333362E37381F0405060708090A99
:100390000B0C0D0E0F101112131415161718191A35
:1003A0001B1C1D2F3130232D350405060708090AB3
:1003B0000B0C0D0E0F101112131415161718191A15
:1003C0001B1C1D2F3130354C0000000000000000C8
:1003D000000000000000000000000000000000001D
:1003E0000000000000000000000101010101010007
:1003F00001010101000000000000000000000000F9
:1004000000000100010001010101010101010101E0
:1004100001010101010101010101010101010101CC
:1004200001010100000001010000000000000000C7
:1004300000000000000000000000000000000000BC
:10044000000000010101010000046801F000B40097
:1004500078005A007F3F1F643214643214783C1EC7
:100460001E140A0500000000000101010101010144
:100470000101020202020202020202030303030359
:100480000303030404040404040505050505060626
:1004900006060607070707080808080909090A0ADF
:1004A0000A0A0B0B0B0C0C0C0D0D0D0E0E0F0F0F83
:1004B000101011111112121313141415151616170A
:1004C00017181819191A1A1B1C1C1D1D1E1F1F2076
:1004D000202122222324252526272728292A2B2BC1
:1004E0002C2D2E2F2F3031323334353636373839E4
:1004F0003A3B3C3D3E3F4041424344464748494ADF
:100500004B4C4D4F50515253555657585A5B5C5EA9
:100510005F606263646667696A6C6D6E7071737444
:100520007678797B7C7E8081838486888A8B8D8FA8
:1005300091929496989A9B9D9FA1A3A5A7A9ABADD4
:10054000AFB1B3B5B7B9BBBDBFC1C4C6C8CACCCFC4
:10055000D1D3D6D8DADCDFE1E4E6E8EBEDF0F2F572
:10056000F7FAFCFF04033000000016034500720098
:1005700067006F0044006F007800200045005A00BB
:10058000000016034500720067006F0044006F0012
:100590007800200045005A00000004030904090205
:1005A0006D00040100A0FA0904000001030101002C
:1005B0000921110100012240000705810308000AFA
:1005C00009040100010301020009211101000122B7
:1005D0004D000705820308000A0904020001030018
:1005E00000000921110100012236000705830308DC
:1005F000000A0904030001030000000921110100A1
:1006000001223900070584032000011201100100B6
:10061000000008EDFE0713010001020301050109B6
:1006200006A101050719E029E715002501950875C0
:1006300001810205081901290595057501910295A9
:1006400001750391010507190029F715002501958A
:10065000F875018102C005010980A101850216011A
:10066000002603001A81002A83007510950181007D
:10067000C0050C0901A1018503160100269C021A80
:1006800001002A9C02751095018100C00501090234
:10069000A1010901A100050919012905150025017C
:1006A00095057501810295017503810105010930E8
:1006B00009311581257F9502750881060938158154
:1006C000257F950175088106050C0A3802158125DC
:1006D0007F950175088106C0C005010906A10105C5
:1006E0000719E029E7150025019508750181029594
:1006F0000175088101050819012905950575019104
:10070000029501750391010507190029FF150026BF
:10071000FF00950675088100C00011241FBECFEFB1
:10072000DAE0DEBFCDBF11E0A0E0B1E0E2E1F3E648
:1007300002C005900D92AA3DB107D9F723E0AAEDBA
:10074000B1E001C01D92AA3BB207E1F70E94202848
:100750000C9430310C9400001092B9008AE0809320
:10076000B800089594EA9093BC009091BC0097FF64
:10077000FCCF9091B900987F983011F0903199F4A6
:100780008093BB0084E88093BC008091BC0087FF0D
:10079000FCCF9091B900987F983119F081E09034A6
:1007A00009F480E0089581E0089584E98093BC0015
:1007B0008091BC0084FDFCCF08958093BB0084E849
:1007C0008093BC008091BC0087FFFCCF9091B90062
:1007D000987F81E0983209F480E0089584E880935E
:1007E000BC008091BC0087FFFCCF8091BB000895C6
:1007F00080B38C7080BB81B3836F81BB089584B15B
:10080000807F84B985B1807F85B98AB1837F8AB9B9
:100810008BB1837F8BB93E9846980895CF93C82FAC
:10082000873000F580910001811125C080E40E948D
:10083000B20380930001811112C082E10E94DD03A6
:100840008093000181110BC081E090E001C0880F0E
:10085000CA95EAF780950E94DD0380930001CF914D
:100860000C94D5038A30B9F040F4883071F08930A7
:1008700079F0209A2898CF9108958C3091F070F0FB
:100880008D30B9F73E9A4698F6CF219A2998F3CF42
:10089000229A2A98F0CF239A2B98EDCF529A5B9800
:1008A000EACF539AFCCFCF93873010F5C091000167
:1008B000C11127C080E40E94B2038093000181111E
:1008C00012C083E10E94DD038093000181110BC0FF
:1008D00081E40E94B20380930001811104C00E9450
:1008E000EE03C82FC0950E94D5038C2FCF91089599
:1008F0008FB1CFB1C695C695CC738370C82BC09508
:10090000F4CFC0E0F2CF0C945E060E94D305809332
:1009100000010E94FF030E94F803EFE2F2E08BED7A
:1009200091E01192DC0126E01D922150E9F7069634
:1009300022E0ED33F207A9F70C94C3090E94D30516
:10094000809300010E94FF030E94F803EFE2F2E0AF
:10095000119282E0ED33F807D9F7089596E0899F68
:10096000F0011124E552FE4F30E020E080E041E04C
:1009700050E09191992351F0DF01119791509C9390
:100980002F5F3F4F26303105A1F70895BA01022E9F
:1009900001C0660F0A94EAF7862BF2CF96E0699FB2
:1009A000B001112430E020E090E04FE0FC01022E85
:1009B00002C0F595E7950A94E2F7E0FF06C0F90159
:1009C000E60FF71FE552FE4F40832F5F3F4F263063
:1009D000310561F70895EF92FF920F931F93CF9324
:1009E000DF9380910001882379F08091DA018F5F95
:1009F0008093DA01811108C00E94D3058093000121
:100A0000811102C00E947D050FE212E0C0E08C2F30
:100A10000E940E0487E0F82EFC0E8F2D0E940E041B
:100A20008C2F0E94AE04E82E8C2F0E945304F801F4
:100A300091918F01DE2DD095D9238E21D82B6C2F4B
:100A4000892F8D270E94CE04F8013197D0838F2DF6
:100A50000E94AE04E82E8F2D0E945304F801968167
:100A6000DE2DD095D9238E21D82B6F2D892F8D2760
:100A70000E94CE04F801D6830E94FF03CF5FC730E7
:100A800031F60E94C50981E0DF91CF911F910F914E
:100A9000FF90EF900895E82FF0E0E15DFD4F808139
:100AA00008950895259A2D9A0895269A2E9A0895C4
:100AB000279A2F9A089556985E98089525982D980C
:100AC000089526982E98089527982F9808950E94A3
:100AD0005B050E945E050E9461050C94640590E030
:100AE000909389008093880090938B0080938A0074
:100AF00090938D0080938C0008950E9467058FEF7E
:100B00000E946F050E9452052FEF80E792E021506E
:100B100080409040E1F700C000000E9455052FEF93
:100B200080E792E0215080409040E1F700C0000053
:100B30000E9458052FEF80E792E0215080409040BE
:100B4000E1F700C000000E945E052FEF80E792E011
:100B5000215080409040E1F700C000000E946105F4
:100B60002FEF80E792E0215080409040E1F700C0F5
:100B700000000E9464050C94670589EA8093800058
:100B800089E08093810024982C983F988AB18F7CCB
:100B90008AB96E98479A8BB180638BB9769A0E9416
:100BA0007D050C945D0680E28093000180913D02FA
:100BB00081110EC00E94AC0381E080933D022FEFB3
:100BC00083ED90E3215080409040E1F700C00000A9
:100BD00080E40E94B2038093000181112EC00E9424
:100BE000DD0380930001811128C00E94DD03809302
:100BF0000001811122C08FE30E94DD038093000178
:100C000081111BC00E94D50380E40E94B20380932F
:100C10000001811112C08CE00E94DD03809300016D
:100C200081110BC00E94DD0380930001811105C07A
:100C30008FE30E94DD03809300010E94D503809121
:100C400000010895662329F0613061F090E080E0B2
:100C50000895FC0182818823C9F38FE191E00E940D
:100C6000C009F4CFFC018281882381F30E94A62071
:100C7000EDCFFB018D3D2CE5920771F08E3D2CE50B
:100C8000920791F08C3D9C45B1F482818823A1F0BC
:100C90000E94A62080E008958281882369F082EF77
:100CA00090E00E94C009F6CF8281882329F081E07C
:100CB0000E945510EFCF81E0089508950895CF92D6
:100CC000DF92EF92FF926B017C010E945B050E9414
:100CD0005E050E9461050E946405C701B6010E947D
:100CE0005920883040F4E82FF0E0EE5CFE4C0C9484
:100CF000E2300E947710C701B601FF90EF90DF90BD
:100D0000CF9008950E945205F6CF0E9452050E948E
:100D10005505F1CF0E9452050E945805ECCF0E9464
:100D200052050E945505F8CF81E008950C943906CC
:100D30000E94ED192FEF84E39CE021508040904009
:100D4000E1F700C000000C943922FF920F931F932B
:100D5000CF93DF938C01FC01C081D18180919202FD
:100D6000811156C08281882309F44DC0CE010E94B2
:100D7000361FF82E682FCE010E94DF1EBE018F2D78
:100D80000E94DB09EC01B8010E949606882309F451
:100D900007C1B801CE010E94440C882309F400C1A8
:100DA000B801CE010E94930C882309F4F9C0C93C14
:100DB000FCE5DF0709F42DC108F061C0C13C9CE5EA
:100DC000D90709F4FEC0C8F5C531FCE5DF0728F5F1
:100DD000C2308CE5D80708F09BC1C1159CE5D90746
:100DE00009F4D9C0C130DC4509F4E1C081E0809349
:100DF000430280934402C801DF91CF911F910F916C
:100E0000FF900C949406CE010E940D1FF82EB6CFD1
:100E1000CE010E94361FBE01B3CFC531FCE5DF070E
:100E200009F436C2C03CDC4509F7F8018281882309
:100E300009F4B6C00E94C010B3C0F8018281C53C5D
:100E4000FCE5DF0709F4D6C068F4C33CECE5DE0737
:100E500009F4CBC008F4C0C0882309F4A1C00E94E3
:100E6000940F9EC0C73C9CE5D90709F4CDC008F497
:100E7000C6C0882309F494C00E94EF0F91C0C13D01
:100E8000FCE5DF0709F414C1F0F5F8018281CD3CDF
:100E9000FCE5DF0709F4D1C0D8F4CB3CECE5DE0774
:100EA00009F4C4C008F4BCC0882309F479C00E94C6
:100EB0003E0E623071058105910540F00E943E0EA4
:100EC000653071058105910508F48CC082E0B2C0DF
:100ED000CF3C9CE5D90709F4D7C008F4C1C08823EA
:100EE00009F45EC00E943E0E6531710581059105D1
:100EF00040F00E943E0E673171058105910508F4AE
:100F000071C085E197C0C53DFCE5DF0709F493C1D9
:100F1000C0F4F8018281C33DFCE5DF0709F4E3C0BA
:100F200008F4CDC0882309F465C1109243020E94E1
:100F3000DF219093400280933F0282E00E94F316EB
:100F40002FC0C93DECE5DE0709F4D2C0CA3DFCE57F
:100F5000DF0709F4D6C0C63DDC4509F047CFF801EC
:100F6000828181116CC18091440281117BC1809189
:100F70004102909142020E94EB218F3A910508F0C4
:100F800071C180E20E94FA1688E20E94C91588E2C7
:100F90000E94A41605C0F801828181110E94980662
:100FA00080E0DF91CF911F910F91FF900895F8019C
:100FB00082818823A9F3809131038160809331037A
:100FC000EFCFF8018281882359F30E941D2082729D
:100FD00049F00E946210E4CF882311F30E941D2083
:100FE0008272B9F30E945810DBCF8823C9F20E94A5
:100FF0007C0FD6CF8823A1F20E94B30FD1CF8823D4
:1010000079F20E94C50FCCCF882351F20E94D70FEE
:10101000C7CFF8018281882319F20E944C0EC0CFFD
:10102000882309F4BDCF0E94610EBACF882309F44A
:10103000B7CF81E00E945510B3CF882309F4B0CF19
:101040000E943E0E663071058105910538F00E94C0
:101050003E0E683071058105910520F286E0EACFE9
:10106000882309F49DCF0E943E0E693071058105E9
:10107000910540F00E943E0E6E307105810591058C
:1010800008F4B0CF89E0D6CF882309F489CF0E9435
:101090003E0E6F3071058105910540F00E943E0EB5
:1010A000643171058105910508F49CCF8FE0C2CFB2
:1010B000F8018281882309F473CF88E1BBCF8823AC
:1010C00009F46ECF0E943E0E6931710581059105CC
:1010D00040F00E943E0E623271058105910508F4D0
:1010E00081CF89E1A7CF882309F45ACF83E2A2CF29
:1010F000F8018281882309F453CF80E00E94BD2843
:101100004FCFF8018281882309F44ACF82E0F6CFDD
:10111000F8018281882309F46ECE0E94C7208111D4
:1011200002C00E94A6200E94DA2090E09093AC03B7
:101130008093AB03FE01E350FC458091AB038160DB
:10114000E231F10538F4E65CFE4C0C94E23080911B
:10115000AB0382608093AB038091AB030E94DE20DF
:101160000E94ED191DCF8091AB038460F3CF809175
:10117000AB038860EFCF8091AB038061EBCF8091B0
:10118000AB038062E7CF8091AB038064E3CF8091B3
:10119000AB038068DFCF8091AB038C60DBCF8091A5
:1011A000AB038E7FD7CF8091AB038D7FD3CF809160
:1011B000AB038B7FCFCF8091AB03877FCBCF809169
:1011C000AB038F7EC7CF8091AB038F7DC3CF809160
:1011D000AB038F7BBFCF8091AB038F77BBCF809169
:1011E000AB03837FB7CF9091AB03892F97FB87F930
:1011F0008058B0CF0E941D2085FF09C081E08093F8
:1012000043028093440282E00E94FA16C9CE809184
:1012100043028111F8CF80913F02909140020E94D9
:10122000EB218F3A910578F786E20E94C91586E294
:101230000E94A416E8CFF8018281882351F0109211
:1012400044020E94DF21909342028093410280E297
:1012500075CE0E941D2081FF07C081E0809343026C
:101260008093440280E2D0CF809144028111FACF72
:1012700080914102909142020E94EB218F3A9105A8
:1012800088F787E20E94C91587E20E94A416EACF78
:101290000E941D20F8019281992381F08A7A91E0C1
:1012A00009F490E090933E02811106C089E20E9409
:1012B000A61F0E94EA1F74CE85E3F9CF80913E02FB
:1012C000811104C089E20E94AD1FF3CF85E3FBCFFB
:1012D000CF9390E0FC01E85BFC4FC49188539C4F96
:1012E000FC018491882369F081EE0E94C9158C2F3E
:1012F0000E94C9158C2F0E94A41681EECF910C94E8
:10130000A4168C2F0E94C9158C2FF8CFFF920F9333
:101310001F93CF93DF938C01F62EF80184918823DD
:1013200049F1E8012196813049F4FE011491812FA1
:101330000E94C915812F0E94A41606C0823089F42C
:10134000FE0184910E94C9158E010F5F1F4F8F2DE2
:10135000815018F3EFE9FFE03197F1F700C000008A
:10136000F7CF833019F4FE018491E5CF0E9468091C
:10137000E801EACFDF91CF911F910F91FF9008957F
:1013800060E00C9486090C94BD050C948304282F0E
:101390002F7041F0822F90E02A3010F44D9608957E
:1013A0000697089587E290E0089508950C94D50972
:1013B0000C94D6090895972F70E026E0929F600D57
:1013C000711D1124FB0194E5899FE00DF11D11248D
:1013D000EE0FFF1FE05BFE4F859194910895FC0195
:1013E000EE0FFF1FE45BFE4F859194910895CF931C
:1013F000DF930E94DB090E94A50BEC01811520E51B
:10140000920708F042C0811530E4930708F010C13C
:10141000883E910528F5803E910508F0A4C0883AE1
:10142000910588F4853A910508F093C081309105C3
:1014300009F499C0009709F496C0049708F093C086
:10144000D0E0C0E090C08D3B910508F490C0805C76
:101450009109C03CD105A0F30E94EF09EC0183C0C3
:101460008115904250F4C11581E0D80708F07BC087
:10147000C03FD10528F3D06576C0C11590E3D907E8
:1014800008F0CCC0CE019F70E7CF811525E592070B
:1014900058F5811534E5930708F0F9C0811542E548
:1014A000940750F4C11581E5D80708F4C4C0DC2FB7
:1014B000CC27C16FD06A57C0982F969596959E01FC
:1014C00023703327C115D34508F0D2C0C1E0D0E066
:1014D00002C0CC0FDD1F2A95E2F720E2929FC001E7
:1014E0001124C82BD92BC2C0C1158AE5D807A0F496
:1014F000C11599E5D90708F0D5C0C11526E5D20771
:1015000008F4CAC0C11538E5D30708F499CFDC2F19
:10151000CC27C06FD06A27C0C1154BE5D40708F4AB
:101520008FCFC1158CE5D80708F4C7C0CE019056FF
:101530008115904208F084CF8D2F8F710E94200C6E
:1015400090E0982F882788279F719C012C2BE90118
:10155000A7C0853A910509F4B3C0863A910509F010
:10156000B2C0C2E8D0E4CE01DF91CF910895883AAD
:10157000910509F4ABC0893A910509F4AAC08A3AE9
:10158000910509F4A9C08B3A910509F4A8C08C3AD9
:10159000910509F4A7C08B3B910509F4A6C08C3BCB
:1015A000910509F4A5C08D3A910509F4A4C0803BCA
:1015B000910509F4A3C08E3A910509F4A2C08F3AAF
:1015C000910509F4A1C0813B910509F4A0C0823BBB
:1015D000910509F49FC0833B910509F49EC0843BAB
:1015E000910509F49DC0853B910509F49CC0863B9B
:1015F000910509F49BC0873B910509F49AC0883B8B
:10160000910509F499C0893B910509F498C08A3B7A
:10161000910509F497C0C0E0D4E4A5CFCE01992785
:10162000D3FF03C0EC01D86C9ECFEC01D06C9BCFF4
:10163000DF70D06A98CFCE01E4E096958795EA9561
:10164000E1F783702C2F26952695237040E2249F86
:1016500090011124382B8C2F8370C1E0D0E002C0A0
:10166000CC0FDD1F8A95E2F7C22BD32BDC687BCF32
:10167000C1E0D0E002C0CC0FDD1F2A95E2F730E2D6
:10168000939FC0011124C82BD92BDA686CCFD82FB7
:10169000CC27C46FD06A67CFDC2FCC27CC27DF7173
:1016A000D06261CFCE0134E0969587953A95E1F707
:1016B0008F70CF70C06ED82FBCCFDD27D06653CFD0
:1016C000C1E8D0E450CFC3E8D0E44DCFC2EED4E4BB
:1016D0004ACFC9EED4E447CFCAEED4E444CFC5EB39
:1016E000D4E441CFC6EBD4E43ECFC3EBD4E43BCF4C
:1016F000C4EBD4E438CFC7EBD4E435CFCCECD4E49E
:1017000032CFCDECD4E42FCFC3E8D5E42CCFCAE858
:10171000D5E429CFC2E9D5E426CFC4E9D5E423CF67
:10172000C1E2D6E420CFC3E2D6E41DCFC4E2D6E4C2
:101730001ACFC5E2D6E417CFC6E2D6E414CFC7E28B
:10174000D6E411CFCAE2D6E40ECF8238910549F132
:10175000B0F48133910509F462C048F489329105EF
:1017600009F456C08A32910509F460C008958533A2
:10177000910509F446C08933910599F00895833E97
:10178000910531F138F4803E910591F0823E91054A
:10179000B1F00895863E910521F1873E910551F102
:1017A00008952091AB032370D9F080EE90E0089566
:1017B0002091AB0320FF14C089E390E008952091AD
:1017C000AB0322FF0DC024FD09C083EE90E0089515
:1017D0002091AB0322FD31C024FF02C090E080E0E5
:1017E00008952091AB0323FFFBCF24FDF7CF87EEB5
:1017F00090E008952091AB0323FFEECF86EE90E0BA
:1018000008952091AB0325FFEBCF89E290E0089586
:101810002091AB0325FFE4CF85E390E0089520916C
:10182000AB0326FFDDCF8AE290E008952091AB0361
:1018300026FFD6CF81E390E0089582EE90E00895F0
:101840009091AB0392FF06C0282F2871283069F4CD
:10185000877F846093FF06C0282F2871283161F4A8
:10186000877E846194FD877E0895282F247124301B
:1018700089F78B7F8860EECF282F2471243191F770
:101880008B7E8861EFCF08950F931F93CF938C01C8
:10189000FB018281811106C0C1E08C2FCF911F9185
:1018A0000F910895C0915202C11125C006311C4507
:1018B00099F70E94430C81E0809352020E94DF213D
:1018C0009093510280935002109245021092470269
:1018D00010924602109249021092480210924B0256
:1018E00010924A0210924D0210924C0210924F0236
:1018F00010924E02D2CF80915002909151020E94DC
:10190000EB218C32914040F680914502E82FF0E0C7
:10191000EE0FFF1FEA5BFD4F118300838F5F809303
:101920004502C0E0BACFCF93DF93EC01C13080E82D
:10193000D807C8F0FB0182818823A9F08091530267
:10194000811109C08CE090E00E94E8300E94B70C41
:1019500081E0809353020E94BE0CCE019F770E94CB
:101960008A0D0E943B0D81E0DF91CF910895809315
:101970005402682F8CE090E00C94FC30E09103015D
:10198000F091040180818093630381FF03C081EEA5
:101990000E94A4168091630385FF03C085EE0E9418
:1019A000A4168091630380FF03C080EE0E94A416FA
:1019B0008091630384FF03C084EE0E94A41680918B
:1019C000630382FF03C082EE0E94A416809163032A
:1019D00086FF03C086EE0E94A4168091630383FFF6
:1019E00003C083EE0E94A4168091630387FF03C0A7
:1019F00087EE0E94A41680915402823049F158F477
:101A0000882379F0813089F08FE39CE90197F1F721
:101A100000C000000895843019F18530A9F786EEE2
:101A200001C082EE0E94C915EFCF80EE0E94C91559
:101A300081EE0E94C91588E10E94C91588E10E94C3
:101A4000A41681EE0E94A41680EE0E94A416DCCF9C
:101A500082EE0E94C91587E50E94C91587E5F5CF7A
:101A600086EE0E94C91586EE0E94A41688E10E94A7
:101A7000C91588E1EACF80915402813009F444C04D
:101A80008823E1F18230D1F18530E1F18091630367
:101A900081FF03C081EE0E94C9158091630385FF19
:101AA00003C085EE0E94C9158091630380FF03C0C7
:101AB00080EE0E94C9158091630384FF03C084EE09
:101AC0000E94C9158091630382FF03C082EE0E94C9
:101AD000C9158091630386FF03C086EE0E94C91575
:101AE0008091630383FF03C083EE0E94C915809138
:101AF000630387FF0EC087EE0C94C91582EE0E9427
:101B0000A416C4CF86EEFBCF8CE20E94C9158CE2EE
:101B1000F6CF0895EF92FF921F93CF93DF937C014E
:101B2000CCE0D0E0C7010C2E02C0969587950A94B0
:101B3000E2F7182F1F70812F0E94C7090E94C91554
:101B4000812F0E94C7090E94A4162497CC3F8FEFD3
:101B5000D80741F7DF91CF911F91FF90EF90089543
:101B6000CF92DF92EF92FF920F931F93CF93DF9369
:101B7000E901662309F466C0E42EF12CEFEFF0E0F2
:101B8000E61BF109EE9D8001EF9D100DFE9D100DED
:101B90001124212FE12FFF27EE1AFF0A5CE3C52E47
:101BA000D12CB6010E94BA30FB01BC01E69EC001F7
:101BB000E79E900DF69E900D1124B6010E94BA305A
:101BC000E230F10589F168F4812F262F210F30973B
:101BD00081F0242F461B319761F080E020E040E047
:101BE00008C0E430F10551F128F1842F861B3597A8
:101BF000A1F7E42FF0E0EC59FB4F4491E22FF0E025
:101C0000EC59FB4F9491E82FF0E0EC59FB4FE49135
:101C100049839883EA83DF91CF911F910F91FF90C1
:101C2000EF90DF90CF900895862F810FE42F412F02
:101C30002E2FDFCFE42FE61B842FF9CF842F462FE2
:101C4000410FD7CF842F242FD4CF88E090E00C947D
:101C5000F030AB01BC0188E090E00C940E31E4E67A
:101C6000F3E083E0808311828FEF82838383148289
:101C700060817181828193810C94290E609164034B
:101C800060FF06C066956F7370E090E080E0089595
:101C900060E070E0CB0108958091680390E00196C8
:101CA0008430910514F083E090E0809368036091A4
:101CB00064037091650380916603909167030C94AF
:101CC000290E809168038150990B97FF02C090E024
:101CD00080E08430910514F083E090E08093680305
:101CE000609164037091650380916603909167032E
:101CF0000C94290E80916403E9E6F3E080FF06C0AE
:101D00006FE070E089E693E00C94F7131182108283
:101D10001282349683E0E53AF807C1F7F1CF90914B
:101D2000640390FF0CC0E9E6F3E0818360834283A3
:101D3000349693E0E53AF907C1F70C947A0E0895CA
:101D4000CF93DF9300D000D0CDB7DEB720916403EE
:101D500020FF0AC09E012F5F3F4F0E94B00D4B81B4
:101D600069818A810E948F0E0F900F900F900F90C3
:101D7000DF91CF9108953F924F925F926F927F9241
:101D80008F929F92AF92BF92CF92DF92EF92FF928B
:101D90000F931F93CF93DF9300D000D0CDB7DEB762
:101DA0008C01462E542E322E8091640380FF30C069
:101DB000982F9E77923009F041C09E012F5F3F4FD0
:101DC000C8010E94B00D4B8169818A810E948F0EEB
:101DD0008091640300FB87F980936403902F9695AC
:101DE000809165038078892B10FB87F980936503C8
:101DF0004092660350926703332051F06091640370
:101E00007091650380916603909167030E94290E8B
:101E10000F900F900F900F90DF91CF911F910F9126
:101E2000FF90EF90DF90CF90BF90AF909F908F90FA
:101E30007F906F905F904F903F900895E82FE695C8
:101E4000EF739EE39E0F9F73943018F450906703D6
:101E5000BFCF9AE39E0F9F73993068F4881F88273D
:101E6000881F90916503292F220F022F082B97FBC3
:101E7000112710F9ADCF87E28E0F8F738A3008F0EB
:101E8000A7CFE951FF0B21E0E0FD2FEFEE7FE65BEE
:101E9000FB4F859194916FE070E00E94BA30260369
:101EA0003001279F700C1124680188E9C81A8EEF51
:101EB000D80A89E6E82E83E0F82E95EAA92E93E069
:101EC000B92E28E6822E99249394C601B4010E946B
:101ED000BA309701452D642D0E94B00DC60CD71C59
:101EE00084E0E80EF11CAE14BF0479F70E947A0E6C
:101EF0006FCF21E00C94BB0EE4E6F3E02081221FBB
:101F00002227221F30916503432F440F842F822BF9
:101F100037FB992790F90C9668E671E00E94CE3065
:101F2000438162810C94790F20916403221F222740
:101F3000221F30916503432F440F842F822B37FBE0
:101F4000992790F98C30910540F4845A9E4F409126
:101F50006703609166030C94790F0C9768E671E053
:101F60000E94CE30F4CFE4E6F3E08081881F88271A
:101F7000881F90916503292F220F97FB992790F9CD
:101F800043816FEF822B0C94790FE4E6F3E08081BC
:101F9000881F8827881F90916503292F220F97FBA0
:101FA000992790F9438160E0822B0C94790F40913E
:101FB0006703443F90F4445F80916403881F88273F
:101FC000881F90916503292F220F97FB992790F97D
:101FD00060916603822B0C94790F4FEFEDCF409107
:101FE00067034C3090F04C5080916403881F882721
:101FF000881F90916503292F220F97FB992790F94D
:1020000060916603822B0C94790F40E0EDCF20E0C5
:102010000C94BB0E9091640390FF46C0917881119F
:1020200028C0926090936403662351F0609164032A
:102030007091650380916603909167030E94290E59
:1020400080916403382F3E773230D9F410926E02BB
:10205000881F8827881F90916503292F220F97FBDF
:10206000992790F94091670360916603822B0C9445
:102070000710843210F09664D5CF8F73880F982B99
:10208000D1CF982F96959F732EE3290F2F73273169
:1020900010F0363421F491E090936E02D9CF995D1F
:1020A0009F739A30A8F6D2CF089561E00C940A107D
:1020B0008091640386958F738F5F843208F081E08E
:1020C0000C9455108091640386958F73815009F4A8
:1020D00083E20C945510E4E6F3E080818160808314
:1020E00086958F730C94551060E00C940A108091C3
:1020F00031038160809331030E94C720811104C0A5
:102100000E94A6200E942F0E0E94250E6093640359
:102110007093650380936603909367036E7761F411
:102120000E942F0E0E94250E609364037093650336
:10213000809366039093670381E080936E028091A1
:10214000640380FF04C086958F730C947410089507
:10215000E4E6F3E080818E7F8083608171818281FB
:1021600093810E94290E10926E022FEF80E792E079
:10217000215080409040E1F700C000000C947A0E9E
:102180008091640380FD0C94A8100C946B10CF9385
:10219000C82F80916C0290916D020E94EB21EC2F70
:1021A000F0E0E05AFB4FE491E817190611F008F04F
:1021B00042C00E94DF2190936D0280936C02609177
:1021C0006B0270E090E080E00E94BB2E20E030E0E7
:1021D0004FE753E40E94DE2D2BED3FE049E450E44D
:1021E0000E94E42F0E9451300E94582E2BE43AE3C3
:1021F0004EE25FE30E94712D20EF3BEF48ED52E489
:102200000E94E42F0E948A2E462F80916403881F2B
:102210008827881F90916503292F220F97FB992704
:1022200090F960916603822B0E94A00E80916B0250
:102230008F5F80936B02CF910895CF93C82F8091C9
:10224000690290916A020E94EB21EC2FF0E0E35AC0
:10225000FB4FE491E817190609F0E8F40E94DF212A
:1022600090936A02809369024091670360916603CC
:1022700080916702909168020E94A00E809167028F
:1022800090916802019668E671E00E94BA309093DE
:10229000680280936702CF910895CF92DF92FF92F8
:1022A0000F931F93CF93DF93F82E80916502909147
:1022B00066020E94EB21EF2DE695F0E0E65AFB4F17
:1022C000E491E817190609F0A8F50E94DF21909320
:1022D00066028093650209E613E0D0E0C0E088E67C
:1022E000C82EDD24D39480916302909164028C0FF8
:1022F0009D1FB6010E94BA3098014091670360911A
:1023000066030E94B00D68960C5F1F4FC83681E0CF
:10231000D80749F70E947A0E809163029091640277
:10232000F0FE10C00196BE010E94BA309093640284
:1023300080936302DF91CF911F910F91FF90DF9007
:10234000CF9008950197F2CFCF92DF92EF92FF9254
:102350000F931F93CF93DF93C82FFF24FA9480FD30
:1023600002C0FF24F39480916102909162020E9466
:10237000EB21C695EC2FF0E0E95AFB4FE491E8170A
:10238000190611F008F051C00E94DF2190936202FB
:102390008093610209E613E0D0E0C0E0F801118209
:1023A0001082128294E0C92ED12CE12C809160021F
:1023B0008E0D87FD815F082E000C990B8C179D07F1
:1023C000E9F4809167038C9DA0018D9D500D11242F
:1023D000559547955595479580916403881F8827A3
:1023E000881F90916503592F550F97FB992790F9F6
:1023F000980160916603852B0E94B00DEF0CF1E00F
:10240000CF1AD10899F621960C5F1F4FCF30D10516
:1024100029F60E947A0E8091600291E0F91210C0B4
:1024200081110CC08EE080936002DF91CF911F91EB
:102430000F91FF90EF90DF90CF9008958150F3CFF0
:1024400090E00196BE010E94CE30EDCF0F931F9316
:10245000CF93DF93C82F80915E0290915F020E941C
:10246000EB21EC2FF0E0EC5AFB4FE491E817190652
:1024700011F008F052C00E94DF2190935F02809318
:102480005E02C9E6D3E0FE01118210821282349608
:1024900083E0E53AF807C1F710E000E080915D02C3
:1024A000082E000C990B08171907E4F1809102011E
:1024B000082E000C990B80179107A4F180916403FA
:1024C000881F8827881F90916503592F550F97FB08
:1024D000992790F99E014091670360916603852BCF
:1024E0000E94B00D0F5F1F4F24960F301105B1F6FB
:1024F0000E947A0E8091010190915D02980F909355
:102500005D0220910201280F20930201121614F49B
:102510009E301CF0819580930101DF91CF911F9136
:102520000F910895198218821A82DCCFEF92FF92E0
:102530000F931F93CF93DF9380915B0290915C0286
:102540000E94EB21883E9340C8F10E94DF219093C6
:102550005C0280935B02C0915902D0915A0221968D
:10256000C170DD27D0935A02C093590289E6E82E44
:1025700083E0F82E10E008E7812F86958C0F9D2FC1
:10258000911D8170992797014091670360916603BF
:10259000FC010E9FC0010F9F900D11240E94B00DF1
:1025A0001F5FF4E0EF0EF11C1F3031F7DF91CF9188
:1025B0001F910F91FF90EF900C947A0EDF91CF91C5
:1025C0001F910F91FF90EF900895CF93DF9300D06C
:1025D00000D0CDB7DEB780915702909158020E948B
:1025E000EB21E8E4F4E02591349182179307C0F1E0
:1025F0008091560281110CC09E012F5F3F4F4FEF1B
:102600006FEF90E080E00E94B00D8A8180935602C7
:102610000E94DF21909358028093570280915502C7
:10262000813071F0882339F040E0823011F440911C
:10263000560280E003C08091560240E060E004C092
:102640006091560240E080E00E948F0E809155021A
:1026500090E0019663E070E00E94CE3080935502D6
:102660000F900F900F900F90DF91CF910895809170
:102670006E028823B1F190916403892F86958F7340
:102680002EE3280F2F73243018F482500C94C710B7
:102690002AE3280F2F73233018F486500C941D1151
:1026A00027E3280F2F73263018F489500C944D110E
:1026B00021E3280F2F73263018F48F500C94A411A7
:1026C0002BE2280F2F73233018F485510C94261217
:1026D0009E77903311F40C949612963411F40C9466
:1026E000E51208958823B9F05198599A5098589A4C
:1026F00095E09A95F1F70000509A589895E09A95D0
:10270000F1F70000882311F0519A599885E08A95D5
:10271000F1F700000895519A5998E8CF8BB18C7F5A
:102720008BB95098589A5198599A85E08A95F1F743
:10273000000008958AB18C7F8AB985E08A95F1F707
:102740000000519A599885E08A95F1F70000509A57
:10275000589885E08A95F1F7000008955098589AA6
:1027600085E08A95F1F700005198599A85E08A959D
:10277000F1F700000895CF93DF93D82FC8E08D2F95
:1027800080780E947213DD0FC150C9F780E00E946B
:10279000721385E08A95F1F7000085E08A95F1F7DC
:1027A000000080E0DF91CF9108953BB1242F209568
:1027B00023233BB1432B3FB7F894680F791F86174B
:1027C000970711F43FBF0895FC015191CF01E8E054
:1027D0004BB9000000C057FF2BB9550F000000C0D7
:1027E00000C000C02BB900C0EA9591F7E8CFAF92C6
:1027F000BF92CF92DF92EF92FF920F931F93CF93EE
:10280000DF937C018B01CFB6D090BC00F89480910F
:10281000BC008B7F8093BC000E948E130E949A1391
:1028200084E80E94BB13000F111F000F111F5701F6
:10283000A00EB11EE701CA15DB05A9F40E94AE1374
:10284000CFBED092BC00579A40E8B801C701DF91D3
:10285000CF911F910F91FF90EF90DF90CF90BF909D
:10286000AF900C94D51389910E94BB13E4CF909341
:102870007402809373020895E0917302F0917402E0
:10288000309721F00190F081E02D099480E00895C7
:10289000E0917302F0917402309721F00280F3818D
:1028A000E02D09940895E0917302F091740230973D
:1028B00021F00480F581E02D0994089520917102A2
:1028C000309172022817390771F090937202809349
:1028D0007102E0917302F0917402309721F006804A
:1028E000F781E02D0994089520916F0230917002D4
:1028F0002817390771F09093700280936F02E0916E
:102900007302F0917402309721F00084F185E02D7C
:102910000994089508950C948A1481E008950E9402
:10292000D62185B7806885BF85B7806885BF0E943E
:1029300085040E946B220C947710BF92CF92DF9295
:10294000EF92FF920F931F93CF93DF93CDB7DEB734
:102950002A970FB6F894DEBF0FBECDBF0E94EB04DE
:102960000E948D14882309F471C086E7C82E82E086
:10297000D82E10E000E0B02E802F0E944B05E82EEC
:10298000F601F1906F01F81609F45AC080913103F5
:1029900081FD0E94510590E080E0FE242F2D30E063
:1029A000482FB901082E02C0759567950A94E2F781
:1029B00060FF41C08E83BF8281E090E06C0102C065
:1029C000CC0CDD1C4A95E2F72E2D30E02C213D2168
:1029D000232B09F480E088870E94DF218160782F13
:1029E0009A8789874E815F8168858A850E947F15D5
:1029F000F801EA58FD4F80818C2580830E94BA231C
:102A00000E943C1490917502891789F10E943C1430
:102A1000809375022A960FB6F894DEBF0FBECDBF25
:102A2000DF91CF911F910F91FF90EF90DF90CF90AA
:102A3000BF900C94D80901968630910509F0B0CF6B
:102A40000F5F1F4F0E30110509F095CF8FEF89836F
:102A50008A831B820E94DF218160782F9D838C8373
:102A600049815A816B818D810E947F15C7CF2A963B
:102A70000FB6F894DEBF0FBECDBFDF91CF911F918F
:102A80000F91FF90EF90DF90CF90BF900895CF937C
:102A9000DF93DC018C91682F70E021E030E001C011
:102AA000220F8A95EAF711964C91119750E0EA01AE
:102AB000CC57DD4F988112968C9112978823C9F0DC
:102AC000809194028823C1F086E0849FF001859F65
:102AD000F00D1124E60FF71FEE0FFF1FEC5EFE4F07
:102AE000408151814D935C93292B2883DF91CF91B5
:102AF0000895892F8223E6CF20952923F6CFCF93FF
:102B0000DF93CDB7DEB72B970FB6F894DEBF0FBEBD
:102B1000CDBF4F83588769877A878B878A859B8546
:102B2000892B21F0CA0189238F3FE1F41E821D8287
:102B300085E0FE013796DE01119601900D928A958F
:102B4000E1F749815A816B817C818D819E810E9450
:102B5000C31C2B960FB6F894DEBF0FBECDBFDF911E
:102B6000CF910895CE0107960E944715DFCFFC0153
:102B7000808191810E94781F92959F70963041F4D8
:102B80008091940291E0892780939402909393021C
:102B90000895CF93C82F882309F4D4C08238C1F494
:102BA0000E943C1481FDCEC089E30E94A61F0E94B2
:102BB000EA1F2FEF81EE94E0215080409040E1F732
:102BC00000C0000089E30E94AD1FCF910C94EA1F62
:102BD0008338A1F40E943C1480FDB4C083E50E94B8
:102BE000A61F0E94EA1F2FEF81EE94E02150804043
:102BF0009040E1F700C0000083E5E5CF8438A1F400
:102C00000E943C1482FD9EC087E40E94A61F0E9481
:102C1000EA1F2FEF81EE94E0215080409040E1F7D1
:102C200000C0000087E4CFCF8CEF8C0F813A48F4CE
:102C30008C2F0E94C825811185C08C2F0E94A61F51
:102C4000C4CF80E28C0F883048F4C77081E001C0A7
:102C5000880FCA95EAF70E942020B7CF8BE58C0F2A
:102C6000833068F481E890E0C53A31F083E890E081
:102C7000C63A11F482E890E0CF910C945E1488E596
:102C80008C0F853108F05EC082EE90E0C83A09F4FE
:102C900056C089EE90E0C93A09F451C08AEE90E03E
:102CA000CA3A09F44CC085EB90E0CB3A09F447C02E
:102CB00086EB90E0CC3A09F442C083EB90E0CB3B4A
:102CC000F1F184EB90E0CC3BD1F187EB90E0CD3A91
:102CD000B1F18CEC90E0C03B91F18DEC90E0CE3AFC
:102CE00071F183E891E0CF3A51F18AE891E0C13B7C
:102CF00031F182E991E0C23B11F184E991E0C33BFB
:102D0000F1F081E292E0C43BD1F083E292E0C53B76
:102D1000B1F084E292E0C63B91F085E292E0C73BDD
:102D200071F086E292E0C83B51F087E292E0C93B45
:102D300031F090E080E0CA3B11F48AE292E0CF915A
:102D40000C947414CF910895882309F44BC08238F1
:102D500071F40E943C1481FF45C089E30E94A61FC4
:102D60000E94EA1F89E30E94AD1F0C94EA1F83387A
:102D700059F40E943C1480FF35C083E50E94A61FD1
:102D80000E94EA1F83E5EFCF843859F40E943C1477
:102D900082FF28C087E40E94A61F0E94EA1F87E4E2
:102DA000E2CF9CEF980F913AF0F290E2980F9830B2
:102DB00050F4877091E001C0990F8A95EAF7892F46
:102DC0000E942620D2CF9BE5980F933020F490E00C
:102DD00080E00C945E14885A853120F490E080E005
:102DE0000C9474140895882321F00E9420200C94E0
:102DF000EA1F0895882321F00E9426200C94EA1FE0
:102E000008958F929F92AF92BF92CF92DF92EF92EE
:102E1000FF920F931F93CF93DF937C01D62FC72F81
:102E2000FC01058102950F70128111110E943D2055
:102E30000E94E31FC82E882371F01123B1F080E2B5
:102E40008D0F883090F082E00E94CD1F0E94E31F1A
:102E500091E0C82EC926DC2ED2949FE0D922ED2D18
:102E6000F0E0E45BFE4C0C94E230C12CF4CF0C2F6C
:102E70000F70C07F11F00295007F1123A9F000238D
:102E800059F080E28D0F883010F0D11109C0802FE9
:102E90000E9420200E94EA1F8D2F0E94C91514C095
:102EA000802F0E943020F6CF8D2F0E94A416002381
:102EB00059F080E28D0F883010F0D11133C0802F8F
:102EC0000E9426200E94EA1FF8E0DF1639F0DF1684
:102ED00048F086EF8D0D8F70823020F40E943C14F4
:102EE0000E94D809CC2009F42DC20E94C01F80FD89
:102EF00029C2F70112820E94BA1F0E94431EC70115
:102F00000E94AF190E94BA1FDF91CF911F910F91BC
:102F1000FF90EF90DF90CF90BF90AF909F908F90F9
:102F20000C94641E802F0E943620CCCFFC2FFF70A3
:102F3000BF2EC07FC03219F0B29480EFB822DD23DB
:102F400069F0D13049F1112389F1002351F1F701E2
:102F5000858180FFA1CF8F70858323C0112381F0ED
:102F6000011106C00E9456208B290E94F316ACCF97
:102F70000130C1F70E9456208B290E945020A4CF17
:102F8000011106C00E9453208B2D0E94FA169CCF7F
:102F9000013009F499CFF6CF112329F0023008F05F
:102FA00093CF8B2DE2CF01118FCFEECF002361F3B2
:102FB0008D2F0E94A41688CF8C2F869586958370BE
:102FC00069F0813009F080CF8D2F9C2F9370111103
:102FD00002C090E080E00E94741476CF8D2F9C2F69
:102FE0009370111102C090E080E00E945E146CCFDB
:102FF000112309F1D53F99F0D63FB9F0D43F49F4F8
:103000008091A5039091A60381609093A60380937D
:10301000A5038D2F0E94CE220E94AF2355CF809111
:10302000A5039091A6038260F0CF8091A5039091B3
:10303000A6038460EACFD53F89F0D63FA9F0D43FFC
:1030400049F48091A5039091A6038E7F9093A603E7
:103050008093A5038D2F0E943023DECF8091A5039E
:103060009091A6038D7FF2CF8091A5039091A60346
:103070008B7FECCF8C2F837009F047C0111124CFC8
:103080002D2F229526952770220F220F6D2F6F70FE
:10309000862E912CB12CA12C022E04C0880C991CD8
:1030A000AA1CBB1C0A94D2F760E070E0CB01D4FFED
:1030B0000FC06FE070E080E090E004C0660F771F03
:1030C000881F991F2A95D2F76095709580959095E5
:1030D000C695C695C370C23051F080F4682979292D
:1030E0008A299B29C13071F00E94F71DEDCE682915
:1030F00079298A299B290E94091EE6CE0E94F71D84
:10310000C501B4010E94E51DDFCE8695112311F0A3
:103110008C2F8170882309F4D7CE2D2F22952695E8
:103120002770220F220F6D2F6F70862E912CB12CDD
:10313000A12C022E04C0880C991CAA1CBB1C0A944A
:10314000D2F760E070E0CB01D4FF0FC06FE070E019
:1031500080E090E004C0660F771F881F991F2A95B2
:10316000D2F76095709580959095C695C695C37079
:10317000C23051F080F4682979298A299B29C1300D
:1031800071F00E94BA1EA0CE682979298A299B294C
:103190000E94CC1E99CE0E94BA1EC501B4010E94A5
:1031A000A81E92CEE0E2ED0FE53108F04CC0F0E051
:1031B000E45AFE4C0C94E230DF708C2F8F71112397
:1031C00021F00E94431E8D2FD0CE0E94641E8D2FB1
:1031D000DCCE112339F0011177CE8C2F8F710E9434
:1031E000871E72CE023008F06FCEF7CF8C2F8F7112
:1031F000112339F00E94431E67CE8C2F8F7111234B
:10320000C9F30E94641E60CE112329F08C2F8F71A8
:103210000E942E1E59CE0E94291E56CE112349F01F
:10322000CF718C2F0E94431E63E08C2F0E94C41F1D
:103230004BCE81E00E94CD1F023008F445CE82E0E3
:103240000E94CD1F41CE112329F0011125CE8C2FD4
:103250008F71D0CF002369F0D93309F0A9CEFFEFE9
:1032600027EE83E0F15020408040E1F700C00000ED
:103270009FCE8C2F8F71C5CF4C2F4F706D2FC701F4
:103280000E9422060E945D1D1FCED23F71F1C8F43C
:10329000D03F01F1D13FB9F180919302002309F4AD
:1032A00046C0882341F08091940291E08927809361
:1032B0009402109293028D2F112389F10E94C91557
:1032C00016C0D43FD9F078F0D53F31F711110FC0B7
:1032D00081E006C0112359F08091940291E0892782
:1032E0008093940204C081E01827109394024C2F1D
:1032F0004F706D2FC7010E94DA09E6CD1111F7CF8B
:1033000010929402F4CF112339F080919302882314
:1033100019F310929302EBCF0023F1F2E8CF0E9451
:10332000A41686E0F70111928A95E9F7E0CF882389
:10333000F1F21111DCCF8091940291E08927809302
:103340009402E7CFDF91CF911F910F91FF90EF9003
:10335000DF90CF90BF90AF909F908F9008950F9384
:103360001F93CF93DF93EC018B819C81892B29F0F4
:103370008881998189238F3F29F4DF91CF911F9113
:103380000F910895CE010E94A5068823B1F36881AC
:1033900079818A810E94821F8C010E94DE1E0E9418
:1033A000E21DB801CE01DF91CF911F910F910C94D6
:1033B00001170E943D200E944D200E94B41F0E94D0
:1033C000EA1F0E943F240E94AF2390E080E00E9409
:1033D0005E1490E080E00C9474140E942D200C94F4
:1033E000D9190E94781FE92FE295EF70E250EE3074
:1033F00070F4F0E0EF58FE4C0C94E230803F19F08E
:1034000020F4803E20F481E00895843FE1F380E0E1
:103410000895803EC0F3813FD1F7F5CF93FB882715
:1034200080F90895CF93DF9300D000D00F92CDB7ED
:10343000DEB70F900F900F900F900F90DF91CF910C
:103440000895CF93DF9300D000D000D0CDB7DEB782
:1034500026960FB6F894DEBF0FBECDBFDF91CF9199
:1034600008951F93CF93DF93C091950216E080914A
:1034700096028C1304C0DF91CF911F910895D0E084
:103480001C9FF0011D9FF00D1124E956FD4F408156
:10349000518162817381848195810E94211A2196D4
:1034A000C770E5CF4091C7025091C8026091C90230
:1034B0007091CA028091CB029091CC020C94211A97
:1034C000209195029091960256E0291302C080E067
:1034D000089530E0529FF001539FF00D1124E956FA
:1034E000FD4F7181761306C07081781303C072811D
:1034F000741304C02F5F3F4F2770E7CF81E008951A
:103500001F93CF93DF938091CC02807FC1F4809191
:10351000C9028823A1F080919502C0919602609122
:10352000C7027091C8024091CA025091CB02D62FB7
:10353000D723DA01A095B09516E0C81304C0DF9137
:10354000CF911F91089590E04115510511F0DF3F93
:1035500031F401968770F1CF2A0F3B1F17C0189FD7
:10356000F001199FF00D1124E956FD4F2181271319
:10357000F0CF20812613EDCF22812111EACF2381C4
:1035800034812417350740F3241B350B2F3A3105BE
:1035900000F72091CC022F7020612093CC0226E00E
:1035A000289FF001299FF00D1124E456FD4F8081E2
:1035B0008F708061808387EC92E00E94AF19DF9169
:1035C000CF911F910C94311A9F92AF92BF92CF92DC
:1035D000DF92EF92FF920F931F93CF93DF93CDB7BC
:1035E000DEB761970FB6F894DEBF0FBECDBF8C017A
:1035F00085E0F801DE011D9601900D928A95E1F7B4
:10360000D801DC901196EC9011971296CC901297FD
:103610008091CA029091CB02009709F492C1209147
:10362000C7023091C802422F43234F3F09F489C19A
:103630001396AD90BC909090C902992009F422C1D4
:10364000A816B906E0F1F501E81BF90BCF01FF243C
:10365000F3948F3A910508F0F12C8091CC02982FC9
:10366000907FFF2009F4C7C091118EC0FC2C3E1141
:103670002BC02D1129C0C11027C08F70806180938D
:10368000CC020E94521A87EC92E00E94AF198091FE
:10369000CC02D80115968C938F2D61960FB6F894B5
:1036A000DEBF0FBECDBFDF91CF911F910F91FF9075
:1036B000EF90DF90CF90BF90AF909F90089580954E
:1036C00090958A0D9B1DC3CFA114B10429F08E2DB6
:1036D0008D218F3F09F054C180E080FF16C04C2D32
:1036E0006E2D8D2D0E94601A882379F087EC92E070
:1036F0000E94AF1986E0E7ECF2E0DF011D928A95A7
:10370000E9F70E94521AF12CC7CFAB2829F08E2D71
:103710008D218F3F09F031C180E0B82FB170AB2E01
:1037200080FF29C04C2D6E2D8D2D0E94601AB82E61
:10373000811121C0DD86EE868D859E850E94781FD1
:10374000292F22952F70223050F0243078F49F706A
:1037500051F0F8019581907F31F4FB2C9DCF9F7043
:1037600011F08823D1F3805E8830B8F3C8010E943D
:10377000AF19BA2CF2CFCC2009F48ECF8091CC02B5
:1037800081608093CC02BFCF3E1106C02D1104C0D2
:10379000D801CC2009F49CC0DD86EE868D859E85FF
:1037A0000E94F119882319F1CC2009F18091CC02F3
:1037B000803270F02091C7023091C80238872F8381
:1037C0001986BB86AA868C87CE0107960E94AF1900
:1037D00086E0F801A7ECB2E001900D928A95E1F73E
:1037E0000E94801A0E94521AFF24F39455CFC801F8
:1037F0000E94AF19F9CF911115C07A2DB98AA88A04
:103800004D2D5E2D6C2D89890E94121A87EC92E055
:103810000E94AF1986E0E7ECF2E0DF011D928A9585
:10382000E9F763C03E1112C02D1110C0C1100EC0C7
:10383000F8018583C8010E94AF19E7ECF2E086E049
:10384000DF011D928A95E9F7F92C26CFDD86EE86F9
:103850008D859E850E94F119882349F2CC2039F28A
:103860008091CC02803208F4B3CF2091C70230910E
:10387000C8023A8329831B82BD82AC828E83CE012B
:103880000196A4CFA816B90698F1F501E81BF90B2B
:10389000CF01F12C8F3A910508F049C0FC2CCC20C7
:1038A00009F4A5CF3E1132C02D1130C08091CC0259
:1038B00080FD23C0982F907F01F1D80115968C933D
:1038C0001597903F39F0982F907F905F8F70892BDC
:1038D00015968C93C8010E94AF1986E0F801A7ECF9
:1038E000B2E001900D928A95E1F70E94521AD4CE6F
:1038F000809590958A0D9B1DCCCF86E0F801A7ECB2
:10390000B2E001900D928A95E1F7C6CEDD86EE8693
:103910008D859E850E94F11981115ACF8091CC022C
:1039200081608093CC02C8010E94AF19B5CE7A2D78
:10393000B98AA88A4D2D5E2D6C2D89890E94121A94
:1039400069CFCC2009F453CFDD86EE868D859E8528
:103950000E94F119F82E882309F449CF86E0F80176
:10396000A7ECB2E001900D928A95E1F787EC92E026
:103970000E94B7150E94801AB8CF81E08C25CDCE69
:1039800081E08C25AACE1F93CF93DF93CDB7DEB70E
:103990002C970FB6F894DEBF0FBECDBF4F8358876C
:1039A00069877A878B879C87CE0107960E94E41AE5
:1039B000882369F08A859B85892B39F04F8158854A
:1039C000842F85238F3F09F071C016E05FC086E029
:1039D000FE013796DE01119601900D928A95E1F76E
:1039E0008A859B85892B89F388859F8189238F3FD1
:1039F00061F32091960230E0C90101968770992702
:103A0000409195024817190671F40E94ED19109221
:103A100096021092950286E0E7ECF2E0DF011D923B
:103A20008A95E9F7D2CF96E0929FD001939FB00D8F
:103A30001124A956BD4FFE01319601900D929A9521
:103A4000E1F7809396020E94311ABFCF819FC00197
:103A5000112489569D4F0E94E41A8823E9F0E091D1
:103A600095021E9FF0011124E956FD4F40815181BE
:103A700062817381848195810E94211A80919502CF
:103A800090E0019687709927809395028091950226
:103A9000909196028913DACF2C960FB6F894DEBF78
:103AA0000FBECDBFDF91CF911F91089569857A85B3
:103AB0008B859C850E94211A88CFEF92FF920F93ED
:103AC0001F93CF93DF938C01892B81F0F12CEE248F
:103AD000E394E8012196F8018491843770F48430EE
:103AE00008F05FC08130B1F08230A1F1DF91CF9159
:103AF0001F910F91FF90EF900895853709F44CC006
:103B000008F43DC09CE7980F903780F78F770E94AC
:103B1000A41649C00E5F1F4FFE01849190E2980FDA
:103B2000983060F48770FE2D01C0FF0F8A95EAF788
:103B30008F2F0E9440200E94EA1F02C00E94C915D8
:103B40008F2D815030F2EFE9FFE03197F1F700C09F
:103B50000000F7CF0E5F1F4FFE01849190E2980F97
:103B6000983050F48770FE2D01C0FF0F8A95EAF758
:103B70008F2F0E944620DFCF0E94A416E1CF0E5F58
:103B80001F4FFE01C491C150D8F28FE99FE0019709
:103B9000F1F700C00000F7CF0E5F1F4FFE01F49059
:103BA000CFCF0E94C9158E01CBCF08950E94D51D9D
:103BB000609308037093090380930A0390930B03A7
:103BC0000C94D91908950C94D61D0F931F9300914E
:103BD00008031091090320910A0330910B03602B15
:103BE000712B822B932B1F910F910C94D61D0F9349
:103BF0001F93009108031091090320910A0330914B
:103C00000B0360237123822393231F910F910C9444
:103C1000D61D0F931F930091080310910903209163
:103C20000A0330910B0360277127822793271F9186
:103C30000F910C94D61D0C945F060E941B1E60937E
:103C400004037093050380930603909307030C9479
:103C5000D91960E070E0CB010C941D1E0F931F93E7
:103C600041E050E060E070E08A019B0104C0000F79
:103C7000111F221F331F8A95D2F7C901B8011F9166
:103C80000F910C941D1E0F931F9341E050E060E0D4
:103C900070E004C0440F551F661F771F8A95D2F746
:103CA0008091040390910503A0910603B09107034E
:103CB0008A019B01082B192B2A2B3B2BC901B80128
:103CC0001F910F910C941D1E0F931F9341E050E024
:103CD00060E070E004C0440F551F661F771F8A958F
:103CE000D2F7CB01BA0160957095809590950091BF
:103CF000040310910503209106033091070360230C
:103D00007123822393231F910F910C941D1E0F93F7
:103D10001F9341E050E060E070E004C0440F551F85
:103D2000661F771F8A95D2F780910403909105034F
:103D3000A0910603B09107038A019B010827192768
:103D40002A273B27C901B8011F910F910C941D1E12
:103D50000F931F9300910403109105032091060314
:103D600030910703602B712B822B932B1F910F91A6
:103D70000C941D1E0F931F930091040310910503D3
:103D8000209106033091070360237123822393233C
:103D90001F910F910C941D1E0F931F93009104030C
:103DA00010910503209106033091070360277127C6
:103DB000822793271F910F910C941D1E0895E92FC0
:103DC000EE0FE90FEE0F8E0F982F977041E001C0B4
:103DD000440F9A95EAF786958695869595E0899F92
:103DE000F0011124E353FD4F30E020E070E05191E9
:103DF000DF011197CB01022E02C0969587950A9498
:103E0000E2F7817081958527842385278C932F5F26
:103E10003F4F2530310559F70895E92FEE0FE90F8F
:103E2000EE0F8E0F982F977086958695869525E0D4
:103E3000829FF0011124E353FD4F50E040E080E009
:103E4000219130E0092E02C0369527950A94E2F7B9
:103E500021703327042E01C0220F0A94EAF7822B27
:103E60004F5F5F4F4530510559F70895BF92CF928C
:103E7000DF92EF92FF920F931F93CF93DF938C010A
:103E8000C0900403D0900503E0900603F090070370
:103E90008091080390910903A0910A03B0910B034C
:103EA000C82AD92AEA2AFB2ACFE1D0E0BC2ED701C2
:103EB000C6010C2E04C0B695A795979587950A94D0
:103EC000D2F780FD0EC0219788F7B12C8B2DDF91A2
:103ED000CF911F910F91FF90EF90DF90CF90BF9007
:103EE0000895B8018C2F0E94F709019761F3EECF76
:103EF000CF93DF93EC010E94361FBE01DF91CF917B
:103F00000C94F7091F93CF93DF93EB0190919202EA
:103F1000992331F0CB01DF91CF911F910C94781F41
:103F2000882379F0CB010E94361F182F682FCE010D
:103F30000E94DF1EBE01812FDF91CF911F910C9453
:103F4000F709CB010E940D1F182FF4CF682F809125
:103F50000301909104010C944021682F809103018A
:103F6000909104010C944B218091030190910401E4
:103F70000C94562180910C0385958595859508951F
:103F800080910C038770089598E0899F9001112417
:103F9000622B60930C030C94431E90910C0380954C
:103FA000892380930C03282F277061F4282F082E73
:103FB000000C330B9217130629F08595859585958E
:103FC0000C94641E089590910C03977081E009F49D
:103FD00080E00895E0910301F091040180913003A5
:103FE0008083E0910301F0910401808190912F037F
:103FF000892B8083E0910301F091040180819091ED
:104000002E03892B808390910D03992381F0E091F9
:104010000301F09104018081892B80838091030149
:10402000909104010E94E320811110920D03809170
:104030000301909104010C94481480913003089579
:1040400090913003892B809330030895809590914F
:10405000300398239093300308951092300308950D
:1040600090912F03892B80932F0308958095909131
:104070002F03982390932F03089510922F030895F0
:1040800090912E03892B80932E0308958095909113
:104090002E03982390932E03089510922E030895D3
:1040A00080930D03089510920D03089580910D03E0
:1040B0000895CF92DF92EF92FF926C01EE24FF24DD
:1040C00020E0C114D104E104F10419F0C701B601E4
:1040D00020E1C72ED82EE92EFF24C114D104E1041B
:1040E000F10419F0285FC701B6016B017C0154E0AF
:1040F000F694E794D794C7945A95D1F7C114D10494
:10410000E104F10419F02C5FC701B6016B017C01D9
:1041100042E0F694E794D794C7944A95D1F7C11436
:10412000D104E104F10419F02E5FC701B6019695A0
:10413000879577956795672B682B692B09F02F5F1B
:10414000822FFF90EF90DF90CF9008956DEE7EEF7D
:1041500090E080E00E941A3160E082E090E00E94EE
:10416000FC3060E083E090E00E94FC3060E084E09E
:1041700090E00E94FC3060E085E090E00E94FC301E
:1041800040E050E0BA0188E090E00C940E3190E0FD
:1041900080E00E94F63021E08D3E9E4F09F020E045
:1041A000822F089582E090E00C94E83083E090E064
:1041B0000C94E83084E090E00C94E830682F84E0C0
:1041C00090E00C94FC30FC0131969C01205E3F4F46
:1041D00080E0919191118F5FE217F307D1F7089575
:1041E0009C01FC0132969FEF80E04191461751F00F
:1041F0009F3F19F4411101C0982F8F5F8E31A9F7AD
:104200009F3F09F40895290F311D97FD3A95F90153
:1042100062830895FC01329680962191261303C093
:10422000DF0111971C92E817F907B9F70895E62FF7
:10423000E695E695E695EF3169F0E80FF92FF11D67
:10424000677021E030E001C0220F6A95EAF78181B2
:10425000822B81830895E62FE695E695E695EF316A
:1042600071F0E80FF92FF11D677021E030E001C017
:10427000220F6A95EAF720958181282321830895EA
:1042800020911301222329F02091AB0327FD0C94E8
:1042900017210C94F02020911301222329F0209162
:1042A000AB0327FD0C942B210C940A21FC013196C1
:1042B00080961192E817F907E1F7089508950C9494
:1042C0005E218091B103843049F11092320388E17C
:1042D00090E020E40FB6F894A895809360000FBE9C
:1042E0002093600080E00E94D8090E945F2183B77C
:1042F000817F846083BF83B7816083BF7894889512
:1043000083B78E7F83BF0FB6F894A8958091600025
:10431000886180936000109260000FBE0895089538
:10432000CF930E949E040E94EB040E948F21C0E064
:104330008C2F0E944B05811105C0CF5FCE30C1F795
:10434000CF91089581E0FCCF08950C94A4210E94A0
:10435000ED190E943C140E94D8090C94A5211F92CB
:104360001FB61F9211248F939F93AF93BF93809199
:104370003203811113C08091A7039091A803A091EB
:10438000A903B091AA034196A11DB11D8093A70373
:104390009093A803A093A903B093AA03BF91AF91F0
:1043A0009F918F911F901FBE1F90189582E084BD32
:1043B00093E095BD9AEF97BD80936E0008952FB757
:1043C000F8948091A7039091A803A091A903B091BC
:1043D000AA032FBF0895CF92DF92EF92FF920F931F
:1043E0001F932FB7F8944091A7035091A8036091B1
:1043F000A9037091AA032FBF6A017B01EE24FF2459
:104400008C0130E020E0C016D106E206F30650F041
:10441000481B590BCA011F910F91FF90EF90DF903D
:10442000CF90089541505109F3CF78941F921FB651
:104430001F9211248F939F93AF93BF938091A703F3
:104440009091A803A091A903B091AA030196A11D80
:10445000B11D8093A7039093A803A093A903B093E1
:10446000AA03BF91AF919F918F911F901FBE1F9084
:104470001895F89481E08093E00080E28093D80062
:10448000E9ECF0E010828FE19EE40197F1F700C0C3
:1044900000001DBA109268001CBC10BE1FBA10921A
:1044A0007A0010926E0010926F00109271001092BC
:1044B00072001082ECEBF0E0108214B817B81AB852
:1044C0001DB810BA108215B818B81BB81EB811BAAA
:1044D0000C94003F08950E94C720811102C00E94E1
:1044E000A6200E94D220809331030E94DA2090E01F
:1044F0009093AC038093AB030E94D620682F70E0AA
:1045000090E080E00C94E31D8091370380FF12C09F
:104510006091070185E0689FB0011124759567954A
:104520007595679560387105A8F561157105A1F15C
:10453000862F089581FF09C06091070185E0689F7B
:10454000B001112475956795EDCF6091070182FD4B
:104550000AC0809138038823D1F0909106016091C0
:104560000701891728F085E0689FB0011124DACF90
:10457000869FB001112485E0869F9001879F300DB2
:104580001124692F70E0C9010E94CE30CBCF65E0C5
:1045900070E0CECF8FE7089581E00895803F31F439
:1045A0000E948422819580933B030895813F19F4F2
:1045B0000E948422F8CF823F31F40E9484228195A8
:1045C00080933A030895833F19F40E948422F8CF20
:1045D000893F21F481E080933C0308958A3F11F4E0
:1045E0008FEFF9CF8B3F21F48FEF80933D03089538
:1045F0008C3F11F481E0F9CF843F31F4809139038D
:104600008160809339030895853F21F480913903B7
:104610008260F7CF863F21F4809139038460F1CF27
:10462000873F21F4809139038860EBCF883F21F4E4
:10463000809139038061E5CF8D3F31F4809137035C
:1046400081608093370308958E3F21F48091370372
:104650008260F7CF8F3FB9F7809137038460F1CF45
:1046600090913A03803F41F480913B0387FD109283
:104670003B03992371F00895813F29F480913B0316
:104680001816ACF3F6CF823F81F497FFF2CF109269
:104690003A0380913B0390913C03892B90913D0319
:1046A000892B49F7109238030895833F19F419169E
:1046B00074F3DFCF893F39F480913C031816CCF6B0
:1046C00010923C03D6CF8A3F29F480913C0387FFA8
:1046D000D0CFF6CF8B3F39F480913D0387FFC9CF10
:1046E00010923D03C6CF8C3F29F480913D031816EC
:1046F000BCF3BFCF843F31F4809139038E7F809328
:104700003903B7CF853F21F4809139038D7FF7CFEF
:10471000863F21F4809139038B7FF1CF873F21F4CD
:1047200080913903877FEBCF883F21F48091390353
:104730008F7EE5CF8D3F31F4809137038E7F80935C
:10474000370397CF8E3F21F4809137038D7FF7CFCA
:104750008F3F09F08ECF809137038B7FF0CF89E3B5
:1047600093E00E9453140E94DF21909334038093BE
:10477000330308951F93CF93DF9380913303909178
:1047800034030E94EB21AC01909138032091080181
:1047900030E0911106C0209136038AE0289F9001F5
:1047A00011244217530778F020913A0310913B03EC
:1047B000D0913C03C0913D03211109C0812F8D2B65
:1047C0008C2B09F058C0DF91CF911F9108959F3F26
:1047D00019F09F5F90933803121624F40E948422EC
:1047E00080933A0380913A0387FF05C00E94842298
:1047F000819580933A03111624F40E9484228093B9
:104800003B0380913B0387FF05C00E948422819572
:1048100080933B0330913A033323C1F020913B0353
:104820002223A1F045EB3403C0011124892F9111FB
:1048300001C081E080933A0345EB240390011124E9
:10484000832F311101C081E080933B0381E01D166D
:104850001CF0DD2319F08FEF80933C0381E01C16E0
:104860001CF0CC2319F08FEF80933D03DF91CF91A3
:104870001F910C94AF239F3F09F0ABCFBCCF85E0D5
:10488000E9E3F3E0DF011D928A95E9F7109238031E
:10489000109237030895833081F128F4813059F064
:1048A0008230D1F00895853009F449C0B8F18630DE
:1048B00009F456C0089580913603482F460F5527B6
:1048C000551F4F3F510524F4680F60933603089538
:1048D0008FEF80933603089580910801482F460F8B
:1048E0005527551F4F3F510524F4680F6093080169
:1048F00008958FEF80930801089580910701482F54
:10490000460F5527551F4F3F510524F4680F6093FC
:10491000070108958FEF80930701089580910601A4
:10492000482F460F5527551F4F3F510524F4680F58
:104930006093060108958FEF80930601089580919A
:104940003503482F460F5527551F4F3F510524F477
:10495000680F6093350308958FEF809335030895B2
:1049600080910501482F460F5527551F4F3F510590
:1049700024F4680F6093050108958FEF809305017B
:104980000895833011F128F4813049F0823091F09C
:104990000895853081F120F18630C1F1089580912C
:1049A0003603681720F4861B80933603089510920F
:1049B0003603089580910801681720F4861B8093C0
:1049C0000801089510920801089580910701681761
:1049D00020F4861B80930701089510920701089523
:1049E00080910601681720F4861B809306010895C4
:1049F00010920601089580913503681720F4861BF4
:104A00008093350308951092350308958091050130
:104A1000681720F4861B8093050108951092050104
:104A200008950F931F9341E050E060E070E08A0129
:104A30009B0104C0000F111F221F331F8A95D2F75C
:104A4000C901B8010E94E31D1F910F910C94ED194B
:104A5000873208F043C08E3108F089C0803109F4F4
:104A60007BC0C8F4873009F469C028F4863009F4A3
:104A70005CC080E008958B3009F455C08E30C9F7D2
:104A800090913103892F8B7F92FF84608093310353
:104A900082FD20C048C0863109F445C068F48131E8
:104AA00041F70E94ED199091AB03892F97FB87F98D
:104AB00080588093AB0337C08931A9F18B31C9F697
:104AC00090913103892F8D7F91FF82608093310314
:104AD00081FF29C08091310381603BC0883319F187
:104AE00050F4893221F0853311F0873211F680E0DD
:104AF0000E94112518C08334D1F328F48A3308F4B6
:104B0000B8CF8953F5CF883409F0B3CF0E94ED199F
:104B10002FEF83ED90E3215080409040E1F700C0FB
:104B200000000E94392281E0089580913103807F46
:104B30008093310381E080933F0308959091310386
:104B4000892F8E7F90FF81608093310380FDEBCFB2
:104B5000817F80933103E7CF90913103892F877F45
:104B600093FF88608093310383FDB4CFDCCF8D51F8
:104B7000BFCF80E008950C94B9258E518A3030F46F
:104B8000E82FF0E0E454FE4F8081089580E008951E
:104B9000CF93C82F80913F038130E1F0882331F01B
:104BA0008230F1F110923F0380E012C0E0910301E6
:104BB000F09104018081813111F08232A9F78C2FAC
:104BC0000E94B925811120C08C2F0E942825817058
:104BD000CF910895E0910301F0910401808181312A
:104BE00071F3823261F38C2F0E94BB2581110AC0C0
:104BF000C43199F060F4CB3029F0C03141F782E044
:104C000080933F0381E0E3CF81E090E0E0CFC932C1
:104C100021F0C833B9F380E0DACF10923F03FBCF25
:104C2000C93219F188F4C43101F120F4C73081F19F
:104C300081E0CECF82EE8C0F8630D0F78C2F0E9491
:104C4000BD2580933E03F4CFCE3401F140F46AE0F9
:104C5000CB3471F780913E030E944B24E9CFC135DC
:104C600079F061E0C235B1F3E3CF80913E03882350
:104C700019F010923E03DCCF81E080933F03A8CF70
:104C800061E080913E030E94C124D2CF6AE0F9CF57
:104C90001092360389E18093080186E08093070132
:104CA0008EE180930601109235038FEF809305010A
:104CB000BFCF8091600308950F931F93CF93DF932D
:104CC00000D00F92CDB7DEB78C010E94CD28823084
:104CD00011F0843019F583E089831B830A83809364
:104CE000E9008FEF9091E800815095FD06C095EDA9
:104CF0009A95F1F700008111F5CF8091E80085FFCA
:104D00000DC050E040E063E070E0CE0101960E94EB
:104D1000EA288091E8008E778093E8000F900F904A
:104D20000F90DF91CF911F910F910895CF93DF9353
:104D300000D00F92CDB7DEB72091B103243031F50A
:104D400022E02983805891099B838A8383E08093A2
:104D5000E9008FEF9091E800815095FD06C095ED38
:104D60009A95F1F700008111F5CF8091E80085FF59
:104D70000DC050E040E063E070E0CE0101960E947B
:104D8000EA288091E8008E778093E8000F900F90DA
:104D90000F90DF91CF910895CF93DF93EC010E94A4
:104DA000CD28823011F08430F9F482E08093E9005C
:104DB0008FEF9091E800815095FD06C095ED9A9592
:104DC000F1F700008111F5CF8091E80085FF0CC05C
:104DD00050E040E065E070E0CE010E94EA2880915A
:104DE000E8008E778093E800DF91CF910895CF930C
:104DF000DF93EC010E94CD28823011F08430F9F469
:104E0000809113018823F1F08091AB0387FF1AC0D2
:104E100084E08093E9008FEF9091E800815095FD48
:104E200006C095E19A95F1F700008111F5CF8091C8
:104E3000E80050E040E060E270E085FD1AC0DF91DC
:104E4000CF91089581E08093E9008FEF9091E80081
:104E5000815095FD06C095ED9A95F1F700008111FE
:104E6000F5CF8091E80085FFEACF50E040E068E0B0
:104E700070E0CE010E94EA288091E8008E7780934E
:104E8000E80080E2FE01A0E4B3E001900D928A9573
:104E9000E1F7D5CF8091B003811109C00E94782A33
:104EA0000E94D52A8091E20084608093E2000895F8
:104EB0001092B0030895089508950C94A72142E03C
:104EC00061EC81E00E94F62942E061EC82E00E9400
:104ED000F62942E061EC83E00E94F62942E261ECAF
:104EE00084E00C94F6298091B303833009F455C013
:104EF00030F4813071F1823009F491C008958A3024
:104F000009F47DC08B3009F463C0893009F044C0D6
:104F10008091B203813209F03FC08091B603909135
:104F2000B703009711F00397B9F58091E800877FE8
:104F30008093E8008091E80082FF2AC08091F10010
:104F4000809360038091E8008B778093E8000C9455
:104F50002A2A8091B203813AF9F48091E800877F90
:104F60008093E8008091B6039091B703892B61F498
:104F700060E280E493E070E00E9439298091E800CB
:104F80008B778093E800089560E090E080E0F3CFB5
:104F90008091B1038111CECF08958091B203813AFF
:104FA000D9F78091B6039091B703892BA9F7809127
:104FB000E800877F8093E8008091E80080FFFCCFC5
:104FC000809113018093F1008091E8008E77BDCF2E
:104FD0008091B203813201F78091B6039091B703BB
:104FE000892BD1F68091E800877F8093E8000E94AA
:104FF0002A2A8091B403809313010C94ED198091B7
:10500000B203813249F68091E800877F8093E800FF
:105010000E942A2A8091B5038093610308958091AC
:10502000B203813A09F0B8CF8091E800877F80937E
:10503000E8008091E80080FFFCCF80916103C2CF3F
:1050400084B7877F84BF0FB6F894A89580916000DD
:10505000886180936000109260000FBE80E88093AA
:105060006100109261000E948B140E94782A0E94B5
:10507000D52A8091E20084608093E20078940E94B7
:10508000552D0E948F1489E091E00E943714809181
:10509000B103853029F00E949D140E943713F7CF89
:1050A0000E9461218091AF03882389F30E9490219F
:1050B000882369F30E94D428EACF0C945F28292F13
:1050C00033272330310521F168F42130310509F40B
:1050D00049C02230310509F44AC090E080E030E058
:1050E00020E029C02132310581F122323105A9F7B2
:1050F0006430710590F7FB01EE0FFF1FE653FE4F82
:10510000208131816A537E4FFB01808190E013C082
:1051100099278130910599F0009741F082309105EF
:1051200089F00397D1F6E4E6F5E002C0EAE9F5E09C
:10513000849190E09F01FA01318320830895E2E891
:10514000F5E0F6CFEAE6F5E0F3CF6430710528F636
:10515000660F771FFB01EE52FE4F2081318189E0FF
:1051600090E0E9CF82E190E02BE036E0E4CF8DE6FD
:1051700090E02EE935E0DFCF0895CF93C82F0E944D
:10518000BC28C0936203CF9108958091B10384300D
:1051900011F482E0089581E0089580916203811105
:1051A00002C00C94C528089580E189BD82E189BDC3
:1051B00009B400FEFDCF8091D8008F7D8093D80088
:1051C0008091E00082608093E0008091E00081FDAA
:1051D000FCCF0895AF92BF92CF92DF92FF920F93D0
:1051E0001F93CF93DF936C01EB018A010E94492A40
:1051F000F82E811123C00115110539F0F8018081C5
:105200009181C81BD90BC80ED91EB12CA12C209797
:10521000A9F08091E80085FD22C08091E8008E779A
:105220008093E80001151105A1F0F80180819181BA
:10523000A80EB91EB182A08285E0F82E8F2DDF91D5
:10524000CF911F910F91FF90DF90CF90BF90AF90C3
:1052500008950E94492A8823D1F2F82EEFCFF60153
:1052600081916F018093F1002197FFEFAF1ABF0A80
:10527000CECFFC018091B8039091B90386179707B0
:10528000A0F06115710529F49091E8009E77909344
:10529000E80090E06115710551F4911108C080910A
:1052A000E80082FF34C080E00895BC01F2CF809115
:1052B000B1038823C1F18530C1F18091E80083FDFD
:1052C00030C08091E80082FDEACF8091E80080FF45
:1052D000E1CF8091F3002091F200382F6115710524
:1052E00019F02830310558F091E02830310509F0E7
:1052F00090E02091E8002E772093E800CBCF8191B9
:105300008093F100615071092F5F3F4FE7CF80918B
:10531000B103882341F0853041F08091E80083FF9C
:10532000BECF81E0089582E0089583E00895FC01F6
:105330008091B8039091B90386179707A0F0611583
:10534000710529F48091E8008E778093E80090E061
:105350006115710551F4911108C08091E80082FF38
:1053600035C080E00895BC01F2CF8091B10388235D
:10537000C9F18530C9F18091E80083FD31C0809189
:10538000E80082FDEACF8091E80080FFE1CF8091C4
:10539000F3002091F200382F6115710519F02830C3
:1053A000310558F091E02830310509F090E0809106
:1053B000E8008E778093E800CBCF84918093F10052
:1053C0003196615071092F5F3F4FE6CF8091B10355
:1053D000882341F0853041F08091E80083FFBDCF04
:1053E00081E0089582E0089583E00895982F973032
:1053F00028F08F708093E90081E008959093E90090
:10540000242F762F50E0981731F07091EC00209106
:10541000ED005091F00021FD02C09F5FE8CF309178
:10542000EB003E7F3093EB003091ED003D7F3093F9
:10543000ED003091EB0031603093EB007093EC00A5
:105440002093ED005093F0002091EE0027FDE5CF72
:1054500080E008958091B20387FF13C08091E80037
:1054600082FF06C08091E8008B778093E80004C03B
:105470008091B1038111F2CF08958091B103882307
:10548000D9F38091E80080FFF8CF8091E8008E7713
:10549000ECCF2091E4003091E50085E6A9019091E0
:1054A000EC0090FF06C09091E80090FF06C080E0FD
:1054B00008959091E80092FDFACF9091B10399235D
:1054C00089F0953089F09091EB0095FD0FC0209107
:1054D000E4003091E5004217530709F38150F1F6DB
:1054E00084E0089582E0089583E0089581E00895BE
:1054F0000E94E62A0E94EE2AE0EEF0E080818160C0
:105500008083E8EDF0E080818F77808319BCA7ED80
:10551000B0E08C918E7F8C9380818F7E80831092FF
:10552000B00308950F931F93CF93DF930E94E62A51
:105530000E94EE2AC8EDD0E088818F778883888129
:105540008068888388818F7D888319BC1092B1031D
:105550001092AD031092AF031092AE0300EE10E074
:10556000F80180818B7F808388818160888342E01D
:1055700060E080E00E94F629E1EEF0E080818E7F1D
:105580008083E2EEF0E080818160808380818860AA
:105590008083F80180818E7F808388818061888309
:1055A000DF91CF911F910F910895E8EDF0E0808198
:1055B0008F7E8083E7EDF0E080818160808384E0EE
:1055C00082BF81E08093B0030C94922AE8EDF0E072
:1055D00080818E7F80831092E20008951092DA001D
:1055E0001092E10008951F920F920FB60F921124AE
:1055F0002F933F934F935F936F937F938F939F93DB
:10560000AF93BF93EF93FF938091E10082FF0BC0B4
:105610008091E20082FF07C08091E1008B7F809340
:10562000E1000E94542D8091DA0080FF19C0809122
:10563000D80080FF15C08091DA008E7F8093DA0059
:105640008091D90080FF94C080E189BD82E189BD4D
:1056500009B400FEFDCF81E08093B1030E944A2788
:105660008091E10080FF19C08091E20080FF15C0A9
:105670008091E2008E7F8093E2008091E200806161
:105680008093E2008091D80080628093D80019BC9A
:1056900085E08093B1030E945C278091E10084FF44
:1056A00029C08091E20084FF25C080E189BD82E1AC
:1056B00089BD09B400FEFDCF8091D8008F7D809315
:1056C000D8008091E1008F7E8093E1008091E2001C
:1056D0008F7E8093E2008091E20081608093E200FF
:1056E0008091AD03882309F449C084E08093B1031D
:1056F0000E945D278091E10083FF29C08091E20034
:1057000083FF25C08091E100877F8093E10082E0E4
:105710008093B1031092AD038091E1008E7F80935E
:10572000E1008091E2008E7F8093E2008091E200B0
:1057300080618093E20042E060E080E00E94F62910
:105740008091F00088608093F0000E945B27FF91B9
:10575000EF91BF91AF919F918F917F916F915F91E9
:105760004F913F912F910F900FBE0F901F90189562
:1057700019BC1092B1030E94582772CF8091E300A8
:1057800087FD02C081E0B2CF83E0B0CF1F920F92BD
:105790000FB60F9211242F933F934F935F936F9304
:1057A0007F938F939F93AF93BF93CF93EF93FF9389
:1057B000C091E900CF708091EC001092E9008091D7
:1057C000F000877F8093F00078940E94022C109262
:1057D000E9008091F00088608093F000C093E900B8
:1057E000FF91EF91CF91BF91AF919F918F917F9159
:1057F0006F915F914F913F912F910F900FBE0F903E
:105800001F9018951F93CF93DF93CDB7DEB7AA975C
:105810000FB6F894DEBF0FBECDBF82EB93E02091B0
:10582000F100FC012193CF01F3E08A3B9F07B9F718
:105830000E9473278091E80083FF1EC18091B2030C
:105840009091B3039A3008F017C1E92FF0E0E158C6
:10585000FE4C0C94E230803899F0823809F00CC18B
:105860008091B6038F70873008F006C18093E900FD
:105870008091EB0085FB882780F91092E90006C033
:105880008091AE039091AF03911182609091E800F6
:10589000977F9093E8008093F1001092F10080913F
:1058A000E8008E77E5C0882309F4D3C0823009F080
:1058B000E3C08091B4038111D6C08091B6038F708C
:1058C0002FEF280F263008F0D7C08093E9002091F1
:1058D000EB0020FFC8C0933031F48091EB00806270
:1058E0008093EB00C0C09091EB0090619093EB002F
:1058F00021E030E001C0220F8A95EAF72093EA0008
:105900001092EA008091EB008860EACF8111B4C068
:105910001091B4031F778091E3008078812B8093EE
:10592000E3008091E800877F8093E8000E942A2AA4
:105930008091E80080FFFCCF8091E3008068809335
:10594000E30082E0111183E08093B10395C0805899
:10595000823008F091C08091B4039091B5038C3DE2
:1059600023E09207A1F583E08A838AE289834FB717
:10597000F894DE01139620E03EE051E2E32FF0E0E0
:1059800050935700E49120FF03C0E295EF703F5F12
:10599000EF708E2F90E0EA30C0F0C7968D939D9304
:1059A0002F5F243159F74FBF8091E800877F8093A4
:1059B000E8006AE270E0CE0101960E9439298091E8
:1059C000E8008B778093E80057C0C096E7CF6091DE
:1059D000B6037091B703AE014F5F5F4F0E945D2821
:1059E000BC01892B09F448C09091E800977F9093FF
:1059F000E80089819A810E949729E1CF8038E1F5FA
:105A00008091E800877F8093E8008091AD038093C8
:105A1000F10045CF811130C09091B403923060F510
:105A20008091E800877F8093E8009093AD030E9407
:105A30002A2A8091AD03882311F084E005C080916B
:105A4000E30087FDFACF81E08093B1030E945F27D6
:105A500013C08091B403813079F481E0933009F070
:105A600080E08093AF031092E9008091E800877F87
:105A70008093E8000E942A2A8091E80083FF0AC0F0
:105A80008091E800877F8093E8008091EB0080623E
:105A90008093EB00AA960FB6F894DEBF0FBECDBF81
:105AA000DF91CF911F9108950895CF938091B10315
:105AB000882399F0C091E900CF708091EC0080FDBF
:105AC0000EC080E0C82B1092E9008091E80083FDB1
:105AD0000E94022CCF70C093E900CF91089580E816
